:020000040800F2
:100000000000022091190008A9180008AD18000886
:10001000B1180008B5180008B91800080000000061
:10002000000000000000000000000000BD180008F3
:10003000C118000800000000C5180008C918000811
:10004000E1190008E1190008E1190008E1190008A8
:10005000E1190008E1190008E1190008E119000898
:10006000E1190008E1190008E1190008E119000888
:10007000E1190008E1190008E1190008E119000878
:10008000E1190008E1190008E1190008E119000868
:10009000E1190008E1190008E1190008E119000858
:1000A000E1190008CD180008E1190008E11900085D
:1000B000E1190008E1190008E1190008E119000838
:1000C000E1190008E1190008E1190008E119000828
:1000D000E1190008E1190008E1190008E119000818
:1000E000D9180008E1190008E1190008E119000811
:1000F000E1190008E1190008E1190008E1190008F8
:10010000E1190008E1190008E1190008E1190008E7
:10011000E1190008E1190008E1190008E1190008D7
:10012000E1190008E1190008E1190008E1190008C7
:10013000E1190008E1190008E1190008E1190008B7
:10014000E1190008E1190008E1190008E1190008A7
:10015000E1190008E1190008E1190008E119000897
:10016000E1190008E1190008E1190008E119000887
:10017000E1190008E1190008E1190008E119000877
:10018000E1190008E1190008E1190008E119000867
:10019000E119000800000000E1190008E119000859
:1001A000E1190008E1190008E1190008E119000847
:1001B000E1190008E1190008E1190008E119000837
:1001C000E1190008E1190008E1190008E119000827
:0801D000E1190008E119000823
:1001E00010B5054C237833B9044B13B10448AFF371
:1001F00000800123237010BDE801002000000000F2
:1002000024B2000808B5034B1BB103490348AFF300
:10021000008008BD00000000EC01002024B20008AE
:1002200001F0FF01102A2BDB10F0070F08D010F8A7
:10023000013B013A8B422DD010F0070F42B3F6D1AB
:10024000F0B441EA012141EA014122F007047FF0C4
:1002500000070023F0E80256083C85EA010586EA1B
:10026000010685FA47F5A3FA87F586FA47F6A5FA57
:1002700087F68EB9EED1F0BC01F0FF0102F0070263
:1002800032B110F8013B013A83EA010313B1F8D10E
:100290000020704701387047002D06BF35460338EF
:1002A000073815F0010F07D1013015F4807F02BF28
:1002B000013015F4C03F0130F0BC0138704700BF79
:1002C000034613F8012B002AFBD1181A0138704796
:1002D00081F0004102E000BF83F0004330B54FEAF7
:1002E00041044FEA430594EA050F08BF90EA020F64
:1002F0001FBF54EA000C55EA020C7FEA645C7FEAF7
:10030000655C00F0E2804FEA5454D4EB5555B8BF19
:100310006D420CDD2C4480EA020281EA030382EA8A
:10032000000083EA010180EA020281EA0303362D1C
:1003300088BF30BD11F0004F4FEA01314FF4801CEF
:100340004CEA113102D0404261EB410113F0004F01
:100350004FEA03334CEA133302D0524263EB4303B8
:1003600094EA050F00F0A780A4F10104D5F1200E56
:100370000DDB02FA0EFC22FA05F2801841F10001B1
:1003800003FA0EF2801843FA05F359410EE0A5F185
:1003900020050EF1200E012A03FA0EFC28BF4CF0B6
:1003A000020C43FA05F3C01851EBE37101F000456C
:1003B00007D54FF0000EDCF1000C7EEB00006EEB79
:1003C0000101B1F5801F1BD3B1F5001F0CD3490803
:1003D0005FEA30004FEA3C0C04F101044FEA44525A
:1003E00012F5800F80F09A80BCF1004F08BF5FEAE1
:1003F000500C50F1000041EB045141EA050130BDC1
:100400005FEA4C0C404141EB0101013C28BFB1F5D2
:10041000801FE9D291F0000F04BF01460020B1FA1D
:1004200081F308BF2033A3F10B03B3F120020CDAF0
:100430000C3208DD02F1140CC2F10C0201FA0CF0CE
:1004400021FA02F10CE002F11402D8BFC2F1200C33
:1004500001FA02F120FA0CFCDCBF41EA0C019040E9
:10046000E41AA2BF01EB0451294330BD6FEA040432
:100470001F3C1CDA0C340EDC04F11404C4F120021D
:1004800020FA04F001FA02F340EA030021FA04F32F
:1004900045EA030130BDC4F10C04C4F1200220FA86
:1004A00002F001FA04F340EA0300294630BD21FAC4
:1004B00004F0294630BD94F0000F83F4801306BF8A
:1004C00081F480110134013D4EE77FEA645C18BF7E
:1004D0007FEA655C29D094EA050F08BF90EA020F15
:1004E00005D054EA000C04BF1946104630BD91EA0D
:1004F000030F1EBF0021002030BD5FEA545C05D110
:100500004000494128BF41F0004130BD14F580044E
:100510003CBF01F5801130BD01F0004545F0FE41C2
:1005200041F470014FF0000030BD7FEA645C1ABFF7
:10053000194610467FEA655C1CBF0B46024650EA2E
:10054000013406BF52EA033591EA030F41F400215A
:1005500030BD00BF90F0000F04BF0021704730B5E0
:100560004FF4806404F132044FF000054FF00001B5
:1005700050E700BF90F0000F04BF0021704730B576
:100580004FF4806404F1320410F0004548BF40424B
:100590004FF000013EE700BF42004FEAE2014FEAA0
:1005A00031014FEA02701FBF12F07F4393F07F4F7B
:1005B00081F06051704732F07F4208BF704793F07E
:1005C0007F4F04BF41F40021704730B54FF4607491
:1005D00001F0004521F000411CE700BF50EA010294
:1005E00008BF704730B54FF000050AE050EA01023D
:1005F00008BF704730B511F0004502D5404261EBAD
:1006000041014FF4806404F132045FEA915C3FF4ED
:10061000D8AE4FF003025FEADC0C18BF03325FEA8A
:10062000DC0C18BF033202EBDC02C2F1200300FA3B
:1006300003FC20FA02F001FA03FE40EA0E0021FA60
:1006400002F11444BDE600BF70B54FF0FF0C4CF44E
:10065000E06C1CEA11541DBF1CEA135594EA0C0F00
:1006600095EA0C0F00F0DEF82C4481EA030621EA3B
:100670004C5123EA4C5350EA013518BF52EA033576
:1006800041F4801143F4801338D0A0FB02CE4FF028
:100690000005E1FB02E506F00042E0FB03E54FF058
:1006A0000006E1FB03569CF0000F18BF4EF0010E50
:1006B000A4F1FF04B6F5007F64F5407404D25FEA4C
:1006C0004E0E6D4146EB060642EAC62141EA5551FF
:1006D0004FEAC52040EA5E504FEACE2EB4F1FD0C41
:1006E00088BFBCF5E06F1ED8BEF1004F08BF5FEABF
:1006F000500E50F1000041EB045170BD06F0004671
:1007000046EA010140EA020081EA0301B4EB5C041D
:10071000C2BFD4EB0C0541EA045170BD41F4801115
:100720004FF0000E013C00F3AB8014F1360FDEBF3A
:10073000002001F0004170BDC4F10004203C35DA16
:100740000C341BDC04F11404C4F1200500FA05F399
:1007500020FA04F001FA05F240EA020001F000423A
:1007600021F0004110EBD37021FA04F642EB0601B0
:100770005EEA430E08BF20EAD37070BDC4F10C04DA
:10078000C4F1200500FA04F320FA05F001FA04F29E
:1007900040EA020001F0004110EBD37041F100018A
:1007A0005EEA430E08BF20EAD37070BDC4F1200595
:1007B00000FA05F24EEA020E20FA04F301FA05F2FD
:1007C00043EA020321FA04F001F0004121FA04F2A5
:1007D00020EA020000EBD3705EEA430E08BF20EA75
:1007E000D37070BD94F0000F0FD101F000464000AF
:1007F00041EB010111F4801F08BF013CF7D041EA31
:10080000060195F0000F18BF704703F00046520034
:1008100043EB030313F4801F08BF013DF7D043EA05
:100820000603704794EA0C0F0CEA135518BF95EABB
:100830000C0F0CD050EA410618BF52EA4306D1D142
:1008400081EA030101F000414FF0000070BD50EA61
:10085000410606BF1046194652EA430619D094EAEB
:100860000C0F02D150EA013613D195EA0C0F05D1D5
:1008700052EA03361CBF104619460AD181EA030129
:1008800001F0004141F0FE4141F470014FF00000E1
:1008900070BD41F0FE4141F4780170BD70B54FF07C
:1008A000FF0C4CF4E06C1CEA11541DBF1CEA1355FC
:1008B00094EA0C0F95EA0C0F00F0A7F8A4EB0504DE
:1008C00081EA030E52EA03354FEA013100F08880D5
:1008D0004FEA03334FF0805545EA131343EA12639E
:1008E0004FEA022245EA111545EA10654FEA002653
:1008F0000EF000419D4208BF964244F1FD0404F50C
:10090000407402D25B084FEA3202B61A65EB030567
:100910005B084FEA32024FF480104FF4002CB6EB24
:10092000020E75EB030E22BFB61A754640EA0C00A4
:100930005B084FEA3202B6EB020E75EB030E22BFE4
:10094000B61A754640EA5C005B084FEA3202B6EB25
:10095000020E75EB030E22BFB61A754640EA9C00E4
:100960005B084FEA3202B6EB020E75EB030E22BFB4
:10097000B61A754640EADC0055EA060E18D04FEA72
:10098000051545EA16754FEA06164FEAC30343EA12
:1009900052734FEAC2025FEA1C1CC0D111F4801FDF
:1009A0000BD141EA00014FF000004FF0004CB6E7D8
:1009B00011F4801F04BF01430020B4F1FD0C88BF77
:1009C000BCF5E06F3FF6AFAEB5EB030C04BFB6EB82
:1009D000020C5FEA500C50F1000041EB045170BD75
:1009E0000EF0004E4EEA113114EB5C04C2BFD4EBA2
:1009F0000C0541EA045170BD41F480114FF0000E26
:100A0000013C90E645EA060E8DE60CEA135594EAA1
:100A10000C0F08BF95EA0C0F3FF43BAF94EA0C0FA4
:100A20000AD150EA01347FF434AF95EA0C0F7FF419
:100A300025AF104619462CE795EA0C0F06D152EA6D
:100A400003353FF4FDAE1046194622E750EA410651
:100A500018BF52EA43067FF4C5AE50EA41047FF462
:100A60000DAF52EA43057FF4EBAE12E74FF0FF3CC7
:100A700006E000BF4FF0010C02E000BF4FF0010C98
:100A80004DF804CD4FEA410C7FEA6C5C4FEA430C11
:100A900018BF7FEA6C5C1BD001B050EA410C0CBF60
:100AA00052EA430C91EA030F02BF90EA020F0020C2
:100AB000704710F1000F91EA030F58BF994208BF29
:100AC00090422CBFD8176FEAE37040F001007047E6
:100AD0004FEA410C7FEA6C5C02D150EA013C07D13D
:100AE0004FEA430C7FEA6C5CD6D152EA033CD3D088
:100AF0005DF8040B704700BF8446104662468C4682
:100B00001946634600E000BF01B5FFF7B7FF0028B4
:100B100048BF10F1000F01BD4DF808EDFFF7F4FFDD
:100B20000CBF012000205DF808FB00BF4DF808ED68
:100B3000FFF7EAFF34BF012000205DF808FB00BF8B
:100B40004DF808EDFFF7E0FF94BF012000205DF8AD
:100B500008FB00BF4DF808EDFFF7CEFF94BF012062
:100B600000205DF808FB00BF4DF808EDFFF7C4FF5B
:100B700034BF012000205DF808FB00BF4FEA410CA4
:100B80007FEA6C5C02D150EA013C0AD14FEA430C87
:100B90007FEA6C5C02D152EA033C02D14FF00000C4
:100BA00070474FF0010070474FEA410212F5001202
:100BB00015D211D56FF47873B3EB625212D94FEAA4
:100BC000C12343F0004343EA505311F0004F23FA8E
:100BD00002F018BF404270474FF00000704750EAE3
:100BE000013005D111F0004008BF6FF000407047A0
:100BF0004FF00000704700BF4A0011D212F50012FA
:100C000011D20DD56FF47873B3EB62520ED44FEA64
:100C1000C12343F0004343EA505323FA02F07047E4
:100C20004FF00000704750EA013002D14FF0FF3022
:100C300070474FF0000070474FEA4102B2F1E043C5
:100C400024BFB3F5001CDCF1FE5C0DD901F0004CB3
:100C50004FEAC0024CEA5070B2F1004F40EB830003
:100C600008BF20F00100704711F0804F21D113F12F
:100C70003872BCBF01F00040704741F480114FEA68
:100C80005252C2F11802C2F1200C10FA0CF320FAF1
:100C900002F018BF40F001004FEAC1234FEAD3230E
:100CA00003FA0CFC40EA0C0023FA02F34FEA430378
:100CB000CCE77FEA625307D150EA01331EBF4FF001
:100CC000FE4040F44000704701F0004040F0FE401C
:100CD00040F40000704700BF53B94AB9002908BF6B
:100CE00000281CBF4FF0FF314FF0FF3000F0BEB9BD
:100CF000ADF1080C6DE904CE00F03CF8DDF804E03D
:100D0000DDE9022304B0704738B500220023044611
:100D10000D46FFF70BFF28B920462946BDE83840AD
:100D200000F00AB8204605F1004100F005F8404205
:100D300061EB410138BD00BFD0B50C4B0022064627
:100D40000F46FFF781FCFFF757FF0446FFF702FC51
:100D5000074B0022FFF778FC02460B463046394627
:100D6000FFF7BAFAFFF748FF2146D0BD0000F03D7B
:100D70000000F0412DE9F047089D8E460446884664
:100D8000002B4AD18A42174662D9B2FA82F64EB196
:100D9000C6F1200301FA06F820FA03F3B74043EA4C
:100DA0000808B4404FEA174E1FFA87FCB8FBFEF163
:100DB000230C0EFB118843EA084301FB0CF29A4214
:100DC00009D9FB1801F1FF3080F0EA809A4240F225
:100DD000E78002393B449A1AA3B2B2FBFEF00EFB45
:100DE000102243EA024300FB0CFC9C4509D9FB1886
:100DF00000F1FF3280F0D6809C4540F2D3803B4426
:100E0000023840EA0140A3EB0C0300211DB1F3407E
:100E10000022C5E90032BDE8F0878B4205D90DB14B
:100E2000C5E9000100210846F5E7B3FA83F100297E
:100E300046D1734502D3824200F20581841A6EEBDB
:100E4000030201209046002DE5D0C5E90048E2E705
:100E5000002A00F09080B2FA82F6002E40F0A480C2
:100E60008A1A030C4FEA174E80B2BCB20121B2FBC2
:100E7000FEFC0EFB1C2243EA024304FB0CF29A42E6
:100E800007D9FB180CF1FF3802D29A4200F2E08039
:100E9000C4469B1AB3FBFEF20EFB123340EA034337
:100EA00002FB04F49C4207D9FB1802F1FF3002D286
:100EB0009C4200F2CA8002461B1B42EA0C40A5E796
:100EC000C1F120068B4022FA06F71F430EFA01F407
:100ED00020FA06F32EFA06FE4FEA1749234300FADA
:100EE00001F81FFA87FCBEFBF9F01C0C09FB10EEA1
:100EF00044EA0E4400FB0CFEA64502FA01F209D9B1
:100F00003C1900F1FF3A80F09C80A64540F29980A0
:100F100002383C44A4EB0E041FFA83FEB4FBF9F341
:100F200009FB13444EEA044403FB0CFCA44508D916
:100F30003C1903F1FF3E80F08280A4457FD9023B3B
:100F40003C4443EA0040A4EB0C04A0FB02EC6445E3
:100F50007346E14662D35FD05DB1B8EB030264EB48
:100F6000090404FA06F622FA01F31E43CC40C5E94F
:100F7000006400214FE7B1FBF2FC010C41EA0E4195
:100F800080B240EA01423B4638463C46B846BE463F
:100F90002026B1FBF7F1A2EB080241EA0C4166E71B
:100FA000014618E710462CE7C6F120022EFA02F39C
:100FB000B740B14020FA02F24FEA174E0A43B3FBA2
:100FC000FEF8BCB20EFB1833110C41EA034108FBDA
:100FD00004F9B04089454FEA104380B23ED97918F0
:100FE00008F1FF3C01D289451FD8A1EB0901B1FBF3
:100FF000FEF909FB04F80EFB191192B242EA014214
:10100000424529D2BA1809F1FF31C4D24245C2D2B1
:10101000A9F102013A44BEE7F0459DD2BEEB0203BE
:101020006CEB070C0138E14696E7A7EB0909494448
:10103000A8F1020CB1FBFEF909FB04F8DBE77346EB
:101040007FE7504666E70846FDE63B44023A33E751
:10105000ACF1020C3B441CE749469CE7A1EB0901BB
:10106000C446B1FBFEF909FB04F8C4E7704700BFB2
:1010700010B5044C0346236051EC100BFFF7DCFD68
:10108000A06010BD040200202DE9F041DDF81880B9
:101090000E4615461C4630B1134B07469869FFF7BC
:1010A0007BFAC7E900012EB10F4BD869FFF774FA3C
:1010B000C6E900012DB10C4B5869FFF76DFAC5E97F
:1010C00000012CB1084BD868FFF766FAC4E90001AB
:1010D000B8F1000F05D0044B1869FFF75DFAC8E9B5
:1010E0000001BDE8F08100BF1C02002010B50A4CD1
:1010F0004FF4EA722046002107F025F8074B002242
:10110000C3E90022C3E90222C3E904222046BDE864
:10111000104004F06FBB00BF1C020020040200203E
:10112000034B04489A681B684360826004F0D4BC97
:10113000040200201C02002030B595B038220021A6
:1011400006A807F000F80020CDE90100CDE9030072
:10115000059001F01DFF40224FF480710223CDE97C
:1011600009120424552206A8CDE90D33CDE90F421A
:10117000CDE911330693139301F084FF08B172B6E1
:10118000FEE703460F250322214601A8CDE90152BF
:10119000CDE90333059302F0F3F908B172B6FEE727
:1011A00015B030BD80B50024A0B000F041FCFFF7C1
:1011B000C3FFCDE91344CDE91544AD4B1794D96C69
:1011C00041F00401D964D86C00F00400019001984A
:1011D000D86C20210843D864D86C0840029002984B
:1011E000D86C40F00100D864D86C00F00100039086
:1011F0000398D86C40F00200D864DB6C03F0020363
:10120000224604934FF09040049B01F0A3FE224637
:101210009848182101F09EFE4FF400564FF48813B1
:101220009548159413A90125CDE9136301F0CEFC6F
:10123000202313A94FF09040CDE91335CDE9154493
:1012400001F0C4FC18238B48139313A903231693AE
:10125000CDE9145401F0BAFC22462146282001F0C1
:10126000E7FA864D282001F01FFB2146342213A8FF
:10127000CDE90944CDE90644CDE90D44CDE90F445B
:10128000CDE91144089405940C940B9406F05BFF8F
:10129000C5E904447A4C2123C5E90043102740F2F4
:1012A000E733C5E9027328468023AB6102F0EAFC0C
:1012B00008B172B6FEE74FF4805308A92846089398
:1012C00002F076FE08B172B6FEE7284602F0C6FDCF
:1012D00008B172B6FEE7CDE90500079005A92846DA
:1012E00003F00CF9024608B172B6FEE7CDE90C0036
:1012F000CDE90E00CDE9100012900CA9284603F0AC
:101300005FF8034608B172B6FEE74FF00072284658
:1013100013A9CDE91333CDE91533CDE91736CDE95E
:101320001933CDE91B32CDE91D331F9303F040F98A
:10133000034608B172B6FEE7524C5348A3614FF41E
:101340006122C4E900020C222046C4E90233C4E948
:101350000432C4E90833A36203F0ECFC014608B18F
:1013600072B6FEE7204603F037FD014608B172B6BB
:10137000FEE7204603F072FD08B172B6FEE7204694
:1013800003F00CFD08B172B6FEE7404E302200219A
:1013900013A806F0D8FE3E4B3360304601F0ACFA9D
:1013A000024608B172B6FEE7CDE91500CDE9170097
:1013B000ADF850001A9013A902244FF001083046EE
:1013C0001394CDF8648001F015FB014608B172B6A4
:1013D000FEE7304F302213A806F0B5FE2E4B3B60DF
:1013E000384601F089FA024608B172B6FEE7CDE947
:1013F0001500CDE91700CDE91980ADF8500013A90B
:101400003846139401F0F6FA054608B172B6FEE7C5
:10141000224C0E900146CDE90C00202213A806F0C4
:1014200092FEC4E90255C4E90455C4E90B55A583ED
:1014300084F8245084F83850E56384F840504FF025
:10144000A0414FF4403304252046C4E90013C4F8FA
:101450002080A56100F00EFB08B172B6FEE70C908B
:101460000CA9204601F028F90346C8B172B6FEE780
:101470000010024000040048000800481804002042
:10148000002C014064040020008000400C05002076
:1014900000080050F8040020000C00502005002037
:1014A0000F4A159318930623CDE9132320467F2373
:1014B00013A91795169300F07FFC044608B172B685
:1014C000FEE70146304601F02DFA2146384601F08C
:1014D00029FA044802F080FC62B6FFF707FEFEE737
:1014E0008000501D180400203F4B02689A4200D033
:1014F000704730B53D483E4D83B0102101F030FDBE
:1015000001220821394801F025FD3A4800F0F4FF96
:101510000721384800F0B8FB364800F049FC044683
:10152000A4B2344801F0A4F807EE904A9FED327A55
:10153000324CF8EE677A67EE877A17EE900AFFF77B
:101540002BF82F4B0022FEF7C7FE02460B462D4814
:101550004FF40051C5E9002301F0F6FC003895ED89
:10156000000B18BF0120284DFFF782FDFFF7D8FDC3
:10157000264A009221462A46254B2648FFF784FD3D
:1015800017A3D3E90023D5E90001FFF75DF8FFF7C2
:1015900033FB0022034611461F4801F00DFA10A349
:1015A000D3E90023D4E90001FFF74EF8FFF724FB4D
:1015B0001A4C002203461146194801F0FDF9B4F90E
:1015C00000300A48002BC6BF03F1FF331BB23223A1
:1015D00000220821238003B0BDE8304001F0BABCEE
:1015E0008C2EBAE8A2639340002C0140000400480E
:1015F00008000020200500206840533A080400201D
:101600000000F83F0008004800040020F00300201C
:10161000F8030020100400200C050020000000202A
:10162000F804002010B54FF0FF331446024892B280
:1016300003F01EF8204610BD6404002072B6FEE7D9
:101640000B4B1A6E42F0010282B01A661A6E02F05B
:1016500001020092009A9A6D42F080529A659B6D49
:1016600003F080530193019B02B001F003BD00BF62
:10167000001002400000000010B504469CB000219C
:10168000542207A8CDE90211CDE90411069106F014
:101690005AFD2368B3F1A04F01D01CB010BD4FF428
:1016A00000424FF0005307A80792189302F096F8F3
:1016B000F0B9134B1348DA6C42F40052DA64DA6C76
:1016C00002F400520092009ADA6C42F00402DA64EA
:1016D000DB6C9FED097B03F00403019302A9002357
:1016E0008DED027B019A049301F070FA1CB010BDDD
:1016F000FFF7A4FFDDE700BF0200000003000000C9
:10170000001002400008004800B502682E498BB066
:1017100000238A42CDE90433CDE90633089305D08E
:101720002A4B9A4224D00BB05DF804FB03F18043AE
:1017300003F504339FED207BDA6C42F48032DA64E7
:10174000DA6C02F480320092009ADA6C42F0010204
:10175000DA64DB6C03F00103019304A94FF09040BD
:101760008DED047B019B01F031FA0BB05DF804FBB9
:1017700003F1704303F501339FED117BDA6C42F402
:101780000032DA64DA6C02F400320292029ADA6C05
:1017900042F00102DA64DB6C03F00103039304A955
:1017A0004FF090408DED047B039B01F00FFA0BB0DE
:1017B0005DF804FBAFF300801000000003000000A0
:1017C000400000000300000000080050000C005022
:1017D00010B504469CB00021542207A8CDE902119F
:1017E000CDE90411069106F0AEFC1D4B22689A4229
:1017F00001D01CB010BD202307A8079301F0EEFF15
:1018000018BB184BDA6D42F00102DA65DA6D02F0AE
:1018100001020092009ADA6C9FED0D7B42F001020A
:10182000DA64DB6C8DED027B9FED0B7B03F0010333
:10183000019302A90C234FF090408DED047B019A97
:10184000069301F0C3F91CB010BDFFF7F7FED8E70F
:101850000C0000000200000000000000000000007A
:1018600000800040001002400E4B02689A4200D0F7
:10187000704700B503F5644383B0186E40F4006010
:1018800018661B6E002203F40063019311461920B1
:10189000019B00F0CDFF192003B05DF804EB01F0CF
:1018A00003B800BF002C0140FEE700BFFEE700BF09
:1018B000FEE700BFFEE700BFFEE700BF704700BFC6
:1018C000704700BF704700BF00F0C2B8014802F087
:1018D00051BC00BF180400204FF4005001F04CBB75
:1018E0000120704708B506F0A3FC162303604FF0F3
:1018F000FF3008BD08B506F09BFC16230360FEE729
:1019000070B5161E07DD0C468D19AFF3008004F884
:10191000010BA542F9D1304670BD00BF4FF0FF303A
:10192000704700BF4FF400534B600020704700BF6A
:1019300001207047002070470C490D4A0B6810B514
:101940000C4C121B2BB11844904207D80860184663
:1019500010BD094B0B6018449042F7D906F068FCA3
:101960000C2303604FF0FF33184610BD8C05002098
:101970000000022000040000E8060020034AD2F81C
:10198000883043F47003C2F88830704700ED00E0FF
:101990000D488546FFF7F2FF0C480D490D4A00231C
:1019A00002E0D458C4500433C4188C42F9D30A4A14
:1019B0000A4C002301E013600432A242FBD306F07C
:1019C0003DFCFFF7EFFBFEE70000022000000020D7
:1019D000E40100208CBA0008E8010020E80600209D
:1019E000FEE7000038B50F4B1B680BB9012038BD6E
:1019F0000D494FF47A720546B2FBF3F30868B0FB69
:101A0000F3F000F05FFF04460028EFD10F2DEDD872
:101A1000024629464FF0FF3000F00AFF034B2046F4
:101A20001D6038BD140000201000002018000020A8
:101A300010B5032000F0EAFE0020FFF7D3FF10B13D
:101A40000124204610BD0446FFF7FAFD204610BDD4
:101A5000034A0449136809680B441360704700BFC8
:101A60009005002014000020014B1868704700BF4B
:101A70009005002030B583B00023019300285CD08E
:101A8000C56D0446002D00F0C180226893689B005C
:101A900005D5936823F0204323F03F0393609368B8
:101AA000DD0019D46F4B70481B6891689B09A0FB3F
:101AB000030321F010419B0921F03F0101335B003A
:101AC00041F0805191600193019B2BB1019B013B3F
:101AD0000193019B002BF9D19368D80030D4E36DBA
:101AE00043F01003E365236E0120034323669368EC
:101AF00013F0040FE36D1CD1D9061AD4E36D23F45F
:101B0000817343F00203E3659368DB0729D4B2F1E4
:101B1000A04F17D0554B9A4214D05549554B896860
:101B20009B680B43544989680B43D90719D453491F
:101B300011E0E36D43F01003E365012003B030BD15
:101B40000020D4E7494B4FF0A04189689B680B43C4
:101B5000DD0706D44A498B68656823F47C132B4360
:101B60008B60E568E36B94F824102B43A5682B4346
:101B7000657F012943EA453343EA01434CD0E16ADA
:101B800021B1256B01F4787129430B43D5683D4998
:101B900029401943D1601369616B23F040630B4303
:101BA000136193681B0722D4D16894F83830257FDD
:101BB00021F480415B0021F0020143EA85330B43AD
:101BC0002169D3601369002933D043F48033136152
:101BD000D2F8C0306FF30D030B43C2F8C03094F855
:101BE0004030012B2FD0136923F001031361636987
:101BF000012B16D0136B23F00F031363E36D23F057
:101C0000030343F00103E36503B030BDFFF734FD88
:101C1000256684F8585038E7A16A013943EA414300
:101C2000ADE7116B236A21F00F01013B0B431363F6
:101C3000E4E723F480331361D2F8C0306FF30D036F
:101C4000C2F8C030CBE71169636CA56C6FF38A01F1
:101C50002B430B43E16C0B43216D0B4343F001031A
:101C60001361C4E710000020632D3E050001005001
:101C7000000400500005005000060050000700500E
:101C8000000300500740F0FF0368B3F1A04F2DE9B7
:101C9000F04105460F4666D04148424A42498342D8
:101CA00018BF0A46AC699668082C06F01F061CD0BF
:101CB00040F22122F240D40713D4B3F1A04F6CD0EC
:101CC0003748384A3849834218BF0A46936813F4A4
:101CD000604F09D0EB6D43F02003EB650120BDE8B8
:101CE000F081DB68D807F5D40424FFF7BDFE791C2A
:101CF0002A6880463AD113682342FCD0EB6D43F446
:101D00000073EB65D36813F4406F0FD16B7F6BB931
:101D100013681B070AD5EB6D23F48073EB65EB6D3D
:101D2000DF0403D4EB6D43F00103EB651C4B9A42D7
:101D30000DD003F580639A422DD0082CD36810D0C3
:101D40005B0401D40C2313600020BDE8F0814FF048
:101D5000A04140F22123F340D807EED4082CCB68F1
:101D6000EED11460F0E70F4A9CE74FB113682342AD
:101D7000C4D1FFF779FEA0EB0803BB422A68F4D96F
:101D800013682340F2D1EA6D85F8583042F004021E
:101D9000EA650320D9E70549DBE7024A96E700BF79
:101DA00000010050000300500007005000040050E4
:101DB0000368186C704700BF2DE9F04190F8582077
:101DC00082B00346012A4FF00000019000F06881C4
:101DD0001A68012083F858009468670767D4486838
:101DE0004FEA901E00F01F0C0EF00C0E086802F176
:101DF00030041F2654F80E50C0F3846000FA0CF033
:101E000006FA0CFC25EA0C0C40EA0C0044F80E0023
:101E10009068460755D5906808689468E40712D41E
:101E2000CE68B24CD2F8B05006F01807FC40C0F3B0
:101E30001207044025EA07052C43C2F8B040AC4C19
:101E4000A64200F09180AB4908422ED0B2F1A04FDB
:101E500000F0DB80A8498A4200F0F08001F5C06103
:101E6000A64C8968A04201F0E07500F0F380A44C14
:101E7000A04200F0EF80A34CA04200F02A81A24CC7
:101E8000A04212D1490210D49B498A420DD09F48EA
:101E900001F5C061B2F1A04F08BF01468A6822F087
:101EA000E0722A4342F480028A60002003E0DA6D87
:101EB00042F02002DA65002283F8582002B0BDE823
:101EC000F081946808682507A7D48D68C0F304568C
:101ED0000724C00DB440B5F1004F00F004006FEAD4
:101EE000040400F04B8102F11407B5403E58344021
:101EF0002C433C50506920F000405061D1E904640B
:101F00000868D568042E074600F00C81C5F3C105AA
:101F10006D0000F0F84704FA05F002F160047C4D12
:101F200054F826C00CEA05053D43284340F0004024
:101F300044F826000D698E6954F8250020F0807061
:101F4000304344F825000E690D7F54F82600A5F1B2
:101F50000105B5FA85F56D0920F0007040EA45608D
:101F600044F82600086858E7002F00F09D8090FA9A
:101F7000A0F4002C00F00C81B4FA84F4013404F0D5
:101F80001F04092C40F2048190FAA0F4002C00F008
:101F9000A581B4FA84F40134A40604F0F84490FA5C
:101FA000A0F5002D00F0A481B5FA85F5013505F006
:101FB0001F05012606FA05F52C4390FAA0F000282B
:101FC00000F09481B0FA80F0451C05F01F05032055
:101FD0006FF01D0610FB0560000540F00070204307
:101FE000C50D8C6805F0040502F11406C0F3045019
:101FF00004FA00F74FF0070C74590CFA00F024EAC9
:1020000000003843705108681DE7404C3B4EA16802
:10201000B04201F0E07566D0394EB04263D0394E1F
:10202000B0427FF42CAFCE013FF53FAFA26822F063
:10203000E0722A4342F08072A26036E72F4C3349A7
:10204000A04289683FF431AF2D4CA04201F0E07509
:102050007FF411AF09023FF528AF2E498A427FF481
:1020600024AF2D4C2D4A2E481268A1689209A0FB7E
:102070000202920921F0E0710132294302EB42028F
:10208000920041F40001A1600192019A002A3FF4FC
:102090000CAF019A013A0192019A002AF9D104E7A2
:1020A000022002B0BDE8F081800E013000F01F0573
:1020B0000124800600F0F840AC40092D44EA0004F9
:1020C00005EB450040F289801E38000540F00070A5
:1020D00085E7C8013FF5E9AE07480C4C0E4982423E
:1020E00018BF0C46A2E70F02BCD5DEE6FFFF0700D3
:1020F00000007F400000088000010050000021C364
:102100001000C090000052C7000084CB00030050B4
:1021100000F0FF03000600500007005010000020F0
:10212000632D3E05146E146EC0F31205C4F384646F
:10213000002D54D1C0F38460844200F08880546E36
:10214000556E02F16004C5F3846502F1640E8542A8
:1021500000F0A880A568A56804F1080CC5F38465A3
:10216000854200F08980E568E56804F10C06C5F356
:102170008464A04200F0AC8038464EE602F11406BA
:1021800035582C403450506940F000405061B5E65D
:1021900090FAA0F4002C00F0B780B4FA84F4013473
:1021A000A40604F0F84490FAA0F5002D00F0AA80EF
:1021B000B5FA85F5013505F01F05012606FA05F586
:1021C0002C4390FAA0F0002800F09980B0FA80F03B
:1021D000013000F01F0000EB40000005FFE690FA20
:1021E000A0F51DB1B5FA85F5AC4230D0546E556EF0
:1021F00002F16004C5F3846502F1640E97FAA7F654
:1022000004F1080CE046002E74D0B6FA86F6AE4211
:102210004AD0DCF80050DCF80050C5F3846597FA2A
:10222000A7FE04F10C06B046BEF1000F59D0BEFA6D
:102230008EFEAE4522D034683468C4F3846497FAC5
:10224000A7F5002D3FF4E9ADB5FA85F091E7106EE2
:10225000144620F0004044F8600F0F68506E556E31
:10226000C7F3120602F1640EC5F384653846002EEA
:10227000C4D1C7F384606AE704F10C08DCF80000FD
:1022800020F00040CCF800000F68E068E468C7F375
:1022900012054646C4F384643846002DCFD1C7F3F7
:1022A000846066E704F10808DEF8000020F00040D2
:1022B000CEF800000F68A068A568C7F31206C446F0
:1022C000C5F384653846002EA9D1C7F3846047E77B
:1022D000306820F00040306008689EE54FF0806470
:1022E0005DE6E568E468C4F38464A8E7084876E638
:1022F000022561E6A568A568C5F384658FE74FF4FC
:1023000040106CE602255BE74FF080644BE700BFAE
:10231000000050FE03689A6812F0040F70B59A68C6
:10232000044601D116073CD5DA68950104D5A08B87
:1023300040F20112904245D002299A6833D05007EA
:1023400002D59A68920759D5012955D09A68100785
:102350000AD59A68920707D49A6822F0004222F0C0
:102360003F0242F020029A60032945D10C25FFF775
:102370007BFB236806469B681D4212D0FFF774FB67
:10238000801B05282368F6D99A682A42F3D0E36DAA
:1023900043F01003E365236E43F00103236601203D
:1023A00070BD002070BD16070AD59A68950707D43E
:1023B0009A6822F0004222F03F0242F020029A6026
:1023C0000825D4E71A68500606D4114A01E0013AFC
:1023D000DDD019684906FAD540221A609A68560776
:1023E0000AD59A68950707D49A6822F0004222F02D
:1023F0003F0242F010029A600425B8E79A6822F082
:10240000004222F03F0242F010029A609CE700BFB7
:10241000000040A370B582B00022036801929A6860
:10242000D20734D499682D4A1142044632D19A68B1
:1024300022F0004222F03F0242F00102B3F1A04F2D
:102440009A6048D02648274A2749834218BF0A463F
:1024500093681B0229D4FFF707FB23681A68D60785
:10246000054614D4214E9A68D00704D49A683240A5
:1024700042F001029A60FFF7F7FA431B022B236830
:1024800002D91A68D10705D51A68D207EBD5002002
:1024900002B070BDE36D43F01003E365236E0120CD
:1024A00043F00103236602B070BD114B114A1B6853
:1024B0009B09A2FB03239B09013303EB43039B000E
:1024C0000193019B002BC6D0019B013B0193019B13
:1024D000002BF9D1BFE7034ABAE700BF3F000080F5
:1024E000000100500003005000070050C0FFFF7FB4
:1024F00010000020632D3E050368B3F1A04F70B5B6
:10250000044652D039483A4A3A49834218BF0A46EB
:1025100096689D6815F0040545D194F85830012B54
:1025200041D0012384F858302046FFF773FF00287C
:102530003DD1E36D226823F4706323F0010343F47B
:102540008073E365294B9A4206F01F0644D003F5D9
:1025500080639A4245D01146E36D23F48013E3650E
:10256000E36D13F480531CBF236E23F00603236630
:102570001C2313608A424FF0000384F8583019D0AE
:1025800040F22123F340DD0714D4E36D43F48013BC
:10259000E365CB689B0105D5E36D23F4405343F419
:1025A0008053E36570BD022070BD114AB0E784F826
:1025B000585070BDD368990105D5E36D23F440539D
:1025C00043F48053E365936823F0004323F03F0313
:1025D00043F00403936070BD4FF0A041002EBFD1C3
:1025E000BAE70549002EBBD1B6E700BF0001005095
:1025F00000030050000700500004005038B5036885
:102600009A68950702D59B68002038BD9A68D40760
:10261000FAD59A6802F00D02012A044609D0E36D4A
:1026200043F01003E365236E43F0010323660120AA
:1026300038BD9A6822F0004222F03F02032142F0A6
:1026400002029A601960FFF70FFA23689B68D907A6
:10265000054603D4D8E79B68DB07D5D5FFF704FA16
:10266000401B02282368F6D99A68D207F3D5D6E72B
:1026700090F85830012B1DD0012310B5032180F8AC
:1026800058300446FFF746FE18B1002384F858304E
:1026900010BD2046FFF7B2FF0028F6D1E36D23F40A
:1026A000885323F0010343F00103E365002384F81A
:1026B000583010BD0220704790F85820012A4CD0A5
:1026C00070B402689DB0034600240120B2F1A04F0F
:1026D000189483F8580019940BD0464DAA423AD06A
:1026E000DA6D83F8584042F02002DA651DB070BC04
:1026F00070474148806840070BD59268DA6D42F018
:1027000020020120DA65002283F858201DB070BC39
:10271000704790684007F1D4B2F1A04F08681ED00E
:10272000002831D13549334C8A68354822F460425B
:102730008A60A4688268D60758D4324A9268D00763
:1027400007D4E20705D48A6822F4716222F00F02EE
:102750008A600020D7E72A48CCE70220704700288B
:1027600034D0294D4E68AC6893F838C024F46044E6
:10277000344344EA4C34AC609268D40733D41E4AE4
:102780009268D40718D5E4E71C4D4C68AA6822F477
:102790006042224393F8384042EA4432AA60154A24
:1027A000946802F580729268D6071FD4154A926821
:1027B000D207CED4E607CCD4AC688A6824F4716121
:1027C000024321F00F010A43AA60C2E70E4988685C
:1027D00020F4604088609268D50704D4064A926865
:1027E000D407B6D4AFE7044A9268B2E7054A9268C4
:1027F000AFE700BF00040050000100500007005088
:102800000005005000060050000300500749CA6848
:1028100003024FF6FF0003F4E0630240134343F06A
:10282000BF6343F40033CB60704700BF00ED00E0AE
:102830001B4BDB68C3F3022300B5C3F1070EBEF1E7
:10284000040F03F1040C28BF4FF0040EBCF1060F77
:102850001CD9A3F1030C4FF0FF3303FA0CF322EA67
:1028600003024FF0FF3303FA0EF321EA030303FAE6
:102870000CF313431B010028DBB20ADB00F16040BC
:1028800000F5614080F800335DF804FB00229446B7
:10289000E7E7044A00F00F00024413765DF804FBFA
:1028A00000ED00E0FCEC00E0002807DB044A4109F1
:1028B000012300F01F00834042F82130704700BF21
:1028C00000E100E00138B0F1807F01D301207047C2
:1028D00010B44FF0E023074C58614FF0F00C84F82F
:1028E00023C00022072110469A615DF8044B19614C
:1028F000704700BF00ED00E088B110B503790446D1
:1029000003F0FF023BB10023022101222171236168
:102910002271184610BD4271FEF7F6FEF3E7012062
:10292000704700BF00283FD04379012B02463DD0BD
:1029300030B4022382B003711D4B04681B681D482C
:1029400025689B09A0FB030301F0100C01209B09E3
:1029500000FA0CF00133284320600193019B2BB156
:10296000019B013B0193019B002BF9D179B92368AD
:1029700003F03E03022B03D1636843F0010363605D
:10298000002001231371507102B030BC70472168E0
:10299000022301F4781103FA0CF39942F0D1636831
:1029A00043F002036360EBE70120704702207047A9
:1029B00010000020632D3E0510B483B00024019464
:1029C00098B10068C46B019051B1019914310A4467
:1029D0000192019A0020136003B05DF8044B704728
:1029E000019908310A440192F3E7012003B05DF830
:1029F000044B7047002800F0C2802DE9F0410F46DB
:102A0000002900F0BE804379012B0546886800F05C
:102A1000C78001236B7104284FF0020316462B7107
:102A20006FD02B6802F01006FA69012A08D1996B61
:102A30003A6A1F24B440B24021EA04010A439A636F
:102A4000B969DA6BD7F814E0012900F09580022902
:102A500000F09A80BEFA8EFC4FEA5C1C3C797979D2
:102A6000A4F10104B4FA84F4A1F101016409B1FAFA
:102A700081F14909240244EA412440F20731B1407E
:102A800022EA01083A6844EA0E040443022A44EAAE
:102A90000C0428F440487AD048EA0208B44044EADA
:102AA0000804DC631A684FF48041B14022EA010255
:102AB0001A60D7E903121C6840F6FE70B04024EAA1
:102AC000000401FA06F0204392011860C1F383016B
:102AD00002F470620A43C0241968B44021EA040178
:102AE0001960196E40F60F70B04021EA0001B24043
:102AF00000240A4301211A66204629716C71BDE841
:102B0000F081FEF7B1FF2B6804465A6B56B118E00E
:102B1000FEF7AAFF001B01282B6802D95A6B11048B
:102B200048D45A6B1204F3D47A6A1A640DE0FEF7A3
:102B30009BFF001B01282B6802D95A6B002A39DB46
:102B40005A6B002AF3DB7A6A5A649A6CB96A06F007
:102B5000100640F2FF30B040B14022EA00020A43C2
:102B60009A64DA6CF96AFF20B04022EA0002B140B0
:102B70000A43B868DA6457E74FF0000C6EE70120AB
:102B800070470120BDE8F0814FF0010C66E700F0CE
:102B9000FBFD0C4B984205D92B6848F400487DE7B3
:102BA0000220ACE7084A2B6890427FF677AF48F4E2
:102BB000804873E72B69032243F008032B6103204D
:102BC0002A719CE70068890900B4C4040B68002BD3
:102BD00000F098812DE9F04FB0F1904F85B04FF0A3
:102BE00000024FF0010B00F00D81DFF84CE3009381
:102BF000009B0BFA02FC1CEA030A77D04D6805F033
:102C000003075400032307F1FF3803FA04F6B8F171
:102C1000010F6FEA060640F21981032F40F0798117
:102C200007FA04F407683E40344315F4403F04605B
:102C30005CD0BE4E346E44F001043466346E04F051
:102C400001040394039C22F0030404F1804402F085
:102C500003070F2304F58034BF0003FA07FCB44BCD
:102C6000A668984226EA0C0600F04081B14B9842D3
:102C700000F02D81DFF8C4C2604500F03D81DFF82F
:102C8000C0C2604500F03F81DFF8B8C260450CBFAC
:102C90004FF0050C4FF0060C0CFA07F73E43A66008
:102CA000DEF808406FEA0A06EF0254BF34404AEAF1
:102CB0000404CEF80840DEF80C40AB0254BF3440A8
:102CC0004AEA0404CEF80C40DEF80440AF0354BFD7
:102CD00034404AEA0404CEF80440DEF80040EB0336
:102CE00054BF34404AEA0404CEF80040009B01324D
:102CF00033FA02F47FF47CAF05B0BDE8F08FD0F872
:102D00000890CE680AEA090906FA07F848EA0908AD
:102D1000C0F80880D0F8048028EA0E08C5F3001E29
:102D20000EFA02FE4EEA080EC0F804E0D0F80C805D
:102D30008E680AEA080806FA07FE4EEA080E022C18
:102D4000C0F80CE019D14FEAD20E0E694FEA8E0E90
:102D500002F007080EF1904E4FEA880806FA08F6CE
:102D6000DEF8209000960F2606FA08F8009E29EA61
:102D7000080946EA0908CEF82080BC40076807EA3F
:102D80000A073C4315F4403F046036D0674F3C6E61
:102D900044F001043C663C6E04F001040394039C7F
:102DA00022F0030404F1804404F5803402F00307A8
:102DB000D4F808E00F26BF0006FA07F72EEA070747
:102DC000A7605D4CEE02A4686FEA0C077CD43C401F
:102DD000594EB460F468AE0200F185803C40564E16
:102DE000F4607468AE037BD43C40534EED037460D2
:102DF000346872D43C40504D2C60013233FA02F4F6
:102E00003FF47AAF0BFA02FE13EA0E0CF5D04D68D0
:102E10005700032606FA07F805F003046FEA080ACC
:102E200004F1FF38B8F1010F7FF669AF032CA4D08D
:102E30004FF090488E68D8F80C9006FA07FE0AEA20
:102E400009094EEA090EC8F80CE096E7D0F8089098
:102E5000CB6809EA060903FA04F848EA0908C0F849
:102E60000880D0F804808B6828EA0C08C5F3001CA1
:102E70000CFA02FC4CEA080CC0F804C0D0F80C8034
:102E800003FA04FC08EA06084CEA080C022FC0F812
:102E90000CC07FF4C5AE0B694FEAD20802F0070CF4
:102EA00000EB88084FEA8C0C03FA0CF3D8F820905A
:102EB00001930F2303FA0CFC019B29EA0C0943EA56
:102EC000090CC8F820C0ABE644EA0C0480E74FF0D8
:102ED000020C0CFA07F73E43E1E64CEA04048AE7E9
:102EE00044EA0C0481E74CEA040478E74FF0010C53
:102EF0000CFA07F73E43D2E64FF0030C0CFA07F743
:102F00003E43CCE670474FF0040C0CFA07F73E4303
:102F1000C5E6D0F80C808B6808EA060803FA04FCC2
:102F20004CEA080CC0F80CC07AE600BF0010024062
:102F3000000400480008004800040140000C00485C
:102F400000100048001400480369194214BF012012
:102F5000002070470AB1816170478162704700BFED
:102F6000436901EA030221EA030141EA0241816166
:102F7000704700BF704700BF044A5169014200D149
:102F8000704708B55061FFF7F5FF08BD0004014028
:102F9000354A136860B903F4C063B3F5806FD2F8A3
:102FA00080301BD023F48073C2F88030002070473B
:102FB000B0F5007F06D023F4C06343F48063136050
:102FC0000020704703F4C063B3F5806FD2F88030FF
:102FD00029D043F48073C2F88030F1E723F4807382
:102FE000C2F8803013682148214923F4C06343F4B8
:102FF000007313600368322000FB03F35069A1FBE8
:1030000003139B0C400503F1010306D500E023B137
:103010005169490503F1FF33F9D4134B5B695B0533
:10302000CED50320704743F48073C2F88030136814
:103030000E480F4923F4C06343F400731360036820
:10304000322000FB03F35069A1FB03139B0C4005E6
:1030500003F10103E1D501E0002BDED05169490500
:1030600003F1FF33D9D5F7E70070004010000020CE
:1030700083DE1B43024A936843F4804393607047A6
:1030800000700040002800F0BD812DE9F041036888
:10309000D90782B0044612D5A6498A68C96802F0E9
:1030A0000C020C2A00F0D080082A40F0D280A14AFD
:1030B0001268920303D56268002A00F037819A07EC
:1030C00022D59C4A9368D26803F00C030C2B00F0C5
:1030D000F880042B40F0FA80964B1B685B0503D503
:1030E000E368002B00F02281924A206953689249DC
:1030F00023F0FE4343EA006353600868FEF772FC66
:10310000002840F0138123681A0719D56369894D97
:10311000002B00F0C280D5F8943043F00103C5F8CD
:103120009430FEF7A1FC064605E0FEF79DFC801BEF
:10313000022800F21781D5F894309B07F5D5236853
:103140005D0741D57B4B9A6DD00000F10F819A6DE0
:1031500042F080529A659B6D03F080530193019B6E
:103160000125764E3368D90540F12E81A368012BE5
:1031700000F0FE80052B00F084816E4ED6F8902082
:1031800022F00102C6F89020D6F8902022F0040226
:10319000C6F89020002B40F0F280FEF765FC41F26B
:1031A0008838074605E0FEF75FFCC01B404500F28B
:1031B000D980D6F890309907F5D425B15D4A936D42
:1031C00023F08053936523689A0618D5A369594D57
:1031D000002B00F0E580D5F8983043F00103C5F8E6
:1031E0009830FEF741FC064605E0FEF73DFC801BEB
:1031F000022800F2B780D5F898309B07F5D5E3692F
:10320000F3B14C4DAA6802F00C020C2A00F0478181
:10321000022B2B6823F080732B6000F0F580FEF703
:1032200023FC044605E0FEF71FFC001B022800F209
:1032300099802B689B01F6D4EA68414B1340EB6000
:10324000002002B0BDE8F08101F0030103293FF442
:103250002EAF6368B3F5803F55D0B3F5A02F00F0D3
:10326000C480344D2A6822F480322A602A6822F40D
:1032700080222A60002B4BD1FEF7F6FB064604E0C5
:10328000FEF7F2FB801B64286CD82B689903F7D4F7
:1032900023689A077FF538AF13E7D5F8943023F009
:1032A0000103C5F89430FEF7DFFB064604E0FEF7A5
:1032B000DBFB801B022855D8D5F894309F07F6D445
:1032C0003DE702F00302022A3FF406AFE368194D1E
:1032D000002B37D02B6843F480732B60FEF7C4FBC0
:1032E000064604E0FEF7C0FB801B02283AD82B6894
:1032F0005F05F7D56B68226923F0FE4343EA02635A
:103300006B60236800E70B4A136843F48033136053
:10331000FEF7AAFB074E054604E0FEF7A5FB401B9F
:1033200064281FD833689F03F7D5B1E7012002B0A6
:10333000BDE8F0810010024018000020007000403D
:10334000FCFFEEFE2B6823F480732B60FEF78CFBF2
:1033500006462B6859057FF5D6AEFEF785FB801B28
:103360000228F6D9032002B0BDE8F0810025F8E676
:10337000654AD2F8903043F00103C2F89030FEF76E
:1033800073FB614F064641F2883804E0FEF76CFBA0
:10339000801B4045E6D8D7F890309B07F6D50CE760
:1033A000D5F8983023F00103C5F89830FEF75CFBA0
:1033B000064604E0FEF758FB801B0228D2D8D5F859
:1033C00098309F07F6D41AE7336843F4807333606C
:1033D000FEF74AFB07463368DA053FF5C7AEFEF74E
:1033E00043FBC01B0228F6D9BCE703F18043A3F5D9
:1033F0003C331A6842F480221A601A6842F4803220
:103400001A6085E701207047FEF72EFB064604E0B0
:10341000FEF72AFB801B0228A4D82B689901F7D459
:10342000E9683A4B226A606A0B401343D4E90A12F6
:1034300043EA012343EAC263D4E90C120138490884
:1034400043EA00130139520843EA4153013A43EA7F
:103450004263EB602B6843F080732B60EB6843F0B2
:103460008073EB60FEF700FB274D044605E0FEF796
:10347000FBFA001B02283FF675AF2B689A01F6D5C0
:10348000DEE6214BD3F8902042F00402C3F89020EE
:10349000D3F8902042F00102C3F890206FE7012B8F
:1034A0003FF444AFEB68226A03F0030191427FF4DA
:1034B0003DAF616A03F0F0020139B2EB011F7FF406
:1034C00035AFA16A03F4FE42B2EB012F7FF42EAFB9
:1034D000E16A03F07842B2EBC16F7FF427AF226B51
:1034E000520803F4C001013AB1EB425F7FF41EAF12
:1034F000626B520803F0C063013AB3EB426F14BF32
:10350000012000209DE600BF001002400C809F01BA
:10351000184B9A6802F00C02042A26D09A6802F02E
:103520000C02082A23D09A6802F00C020C2A01D05F
:1035300000207047D968DA68D86801F003010329D0
:10354000C2F30312C0F306200CBF0B4B0B4B01322E
:10355000B3FBF2F303FB00F0064BDB68C3F34163FC
:1035600001335B00B0FBF3F070470448704702483A
:10357000704700BF0010024000366E010024F400C6
:10358000002800F0EE80784A2DE9F843136803F034
:103590000F038B420D4604460CD2136823F00F0331
:1035A0000B431360136803F00F038B4202D001201A
:1035B000BDE8F8832368DF0769D56768032F00F04B
:1035C000A0806A4B022F1B6800F097805B05EED548
:1035D000FFF79EFF664B984240F2C080634A9368B3
:1035E00023F0F00343F0800393604FF080095F4EB7
:1035F000B36823F003033B43B360FEF735FA41F2AF
:103600008838074604E0FEF72FFAC01B404571D802
:10361000B368626803F00C03B3EB820FF3D1236845
:103620009F0736D4B9F1000F03D0B36823F0F0033D
:10363000B3604D4E336803F00F03AB4246D82368A6
:103640005A0706D54949E0688A6822F4E0620243D5
:103650008A601B0707D5454A2169936823F46053A4
:1036600043EAC1039360FFF753FF404A414C92681D
:103670004149C2F303120346A25C404802F01F0214
:10368000D3400B600068BDE8F843FEF7ABB99E0776
:10369000CFD5580704D535498A6842F4E0628A607C
:1036A000190706D5314A936823F47C5343F4E06349
:1036B00093602E4AA16893682B4E23F0F0030B43CE
:1036C0009360336803F00F03AB42B8D9336823F03B
:1036D0000F032B433360FEF7C7F941F288380746E2
:1036E000336803F00F03AB42A9D0FEF7BDF9C01B4E
:1036F0004045F5D90320BDE8F8839A033FF568AF4C
:1037000055E71A4A116888017FF551AFD068D16832
:10371000D268174E00F003000328C1F303110CBF59
:10372000174818480131B0FBF1F11048C2F30622E6
:1037300001FB02F2C168C1F3416101314900B2FBF2
:10374000F1F2B2420AD9826812F0F00F3FF446AFAC
:10375000990703D5A368002B3FF440AF4FF0000951
:1037600045E70120704700BF0020024000100240E2
:1037700000B4C40448B20008100000201800002063
:1037800000366E010024F400014B1868704700BF3A
:1037900010000020054B064A9B680649C3F302232C
:1037A0000868D35C03F01F03D84070470010024044
:1037B00040B2000810000020054B064A9B680649ED
:1037C000C3F3C2230868D35C03F01F03D8407047DB
:1037D0000010024040B20008100000202DE9F04126
:1037E0000368044613F4002082B041D0AB4B9A6DBD
:1037F000D50040F129810027A94D2B6843F480733F
:103800002B60FEF731F9064604E0FEF72DF9831B25
:10381000022B28D82B68D805F7D5A04D226DD5F8F6
:10382000903013F4407300F05981934200F05681B8
:10383000D5F89010D5F8903043F48033C5F8903027
:10384000D5F8903023F48033C5F8903021F44073DC
:10385000C907C5F8903040F14181FEF705F941F202
:103860008838064635E103202368002F40F0F780B2
:10387000DD0708D589496568D1F8882022F0030260
:103880002A43C1F88820990708D58449A568D1F84A
:10389000882022F00C022A43C1F888205A0708D554
:1038A0007E49E568D1F8882022F030022A43C1F829
:1038B00088201F0708D579492569D1F8882022F08A
:1038C000C0022A43C1F88820DE0608D5734965691D
:1038D000D1F8882022F440722A43C1F888209D063E
:1038E00008D56E49A569D1F8882022F440622A43A0
:1038F000C1F88820590608D56849E569D1F88820BB
:1039000022F440522A43C1F888201A0608D5634998
:10391000256AD1F8882022F440422A43C1F8882041
:10392000DF0508D55D49656AD1F8882022F4403268
:103930002A43C1F888209E0308D55849A56AD1F8C2
:103940009C2022F003022A43C1F89C209D0508D543
:103950005249E56AD1F8882022F440222A43C1F86E
:10396000882059050BD54D49256BD1F8882022F4C4
:1039700040122A43B5F5801FC1F8882075D01A057A
:103980000BD54649656BD1F8882022F440022A43C2
:10399000B5F5800FC1F888206CD0DF040BD53F4906
:1039A000A56BD1F8882022F040722A43B5F1807FC0
:1039B000C1F8882063D09E040BD53849E56BD1F857
:1039C000882022F040622A43B5F1006FC1F88820B8
:1039D0005AD05D040BD53149256CD1F8882022F0EE
:1039E00040622A43B5F1006FC1F8882051D0190414
:1039F0000BD52A49656CD1F8882022F040522A4321
:103A0000B5F1805FC1F888204CD0DA030BD523498B
:103A1000A56CD1F8882022F040422A43B5F1804FAE
:103A2000C1F8882043D05B030BD51C4AE16CD2F867
:103A30009C3023F440130B43B1F5001FC2F89C30B7
:103A40003AD002B0BDE8F0819A6D42F080529A659A
:103A50009B6D03F080530193019B0127CCE60F4936
:103A60008A6D22F080528A6502E7CA6842F48012A9
:103A7000CA6084E7CA6842F48012CA608DE7CA68E7
:103A800042F48012CA6096E7CA6842F48012CA60A3
:103A90009FE7CA6842F48012CA60A8E7001002409B
:103AA00000700040CA6842F48032CA60ADE7CA685C
:103AB00042F48032CA60B6E7D36843F48013D3601F
:103AC00002B0BDE8F081FDF7CFFF801B40453FF617
:103AD000CAAED5F890309B07F5D5226D0449D1F8D0
:103AE000903023F440731343C1F890300020BBE6BC
:103AF00000100240036A026A22F0010270B40262FE
:103B0000446882690D6822F4803222F073022A43ED
:103B10008D6823F002032B43154DA84213D005F501
:103B20000065A8420FD005F54065A8420BD005F509
:103B30008065A84207D005F58065A84203D005F549
:103B40000065A8420DD1CD6823F008032B43D1E9CD
:103B5000056524F4407446EA050C23F004034CEA9E
:103B6000040449684460826170BC41630362704729
:103B7000002C0140036A026A22F4807270B402626F
:103B80004468C2690D6822F4803222F073022A432D
:103B90008D6823F4007343EA0523174DA84214D01F
:103BA00005F50065A84210D005F5E055A8420CD0F7
:103BB000A5F58055A8420FD005F58065A8420BD029
:103BC00005F58065A8420FD106E0CD6823F40063B7
:103BD00043EA052323F48063D1E9056524F44054C6
:103BE00046EA050C44EA0C1449684460C26170BCA2
:103BF000C1630362704700BF002C0140036A026A80
:103C000022F4805270B402624468C2690D6822F0E6
:103C1000807222F4E64242EA05228D6823F40053C2
:103C200043EA0533164DA84214D005F50065A842B5
:103C300010D005F5E055A8420CD0A5F58055A84256
:103C40000FD005F58065A8420BD005F58065A84228
:103C50000FD106E0CD6823F4004343EA053323F493
:103C60008043D1E9056524F4404446EA050C44EA62
:103C70008C1449684460C26170BC0164036270477F
:103C8000002C0140002800F08B8038B590F83D30C2
:103C9000044603F0FF02002B7DD022684C4902232A
:103CA00084F83D308A4213682CD0B2F1804F60D046
:103CB000A1F594318A425CD001F580618A4258D0E6
:103CC00001F580618A4254D001F594318A4219D0BD
:103CD00001F5E0518A4215D0A1F580518A4261D0A8
:103CE00001F580618A425DD001F580618A425FD032
:103CF000A5696168E06823F080032B431360D062FC
:103D0000916212E0A068216923F07003034323F459
:103D100040730B43A16923F080030B431360E368F6
:103D2000D362636893626369136301235361136908
:103D3000DB0703D5136923F001031361012384F822
:103D4000483084F83E3084F83F3084F8403084F8BE
:103D5000413084F8423084F8433084F8443084F8A9
:103D6000453084F8463084F8473084F83D300020F0
:103D700038BDA168206923F070030B4323F440731E
:103D8000A169034323F08003E0680B43616813607B
:103D9000D0629162C9E780F83C20FDF765FD7CE7C1
:103DA000012070472069A16923F440730343B2E7FF
:103DB0002069A16923F44073034323F080030B437C
:103DC00004490B60E368CB6263688B62ABE700BFBA
:103DD000002C01400048014090F83D30012B32D1C9
:103DE00003681A49022280F83D20DA688B4242F0CB
:103DF0000102DA6019D0B3F1804F16D0144A934211
:103E000013D002F5806293420FD002F58062934294
:103E10000BD002F59432934207D002F540629342F0
:103E200003D002F58052934207D19968094A0A40AB
:103E3000062A06D0B2F5803F03D01A6842F001028C
:103E40001A60002070470120704700BF002C01401D
:103E50000004004007000100704700BF002800F088
:103E60008B8038B590F83D30044603F0FF02002BFC
:103E70007DD022684C49022384F83D308A42136881
:103E80002CD0B2F1804F60D0A1F594318A425CD041
:103E900001F580618A4258D001F580618A4254D090
:103EA00001F594318A4219D001F5E0518A4215D0CA
:103EB000A1F580518A4261D001F580618A425DD0CE
:103EC00001F580618A425FD0A5696168E06823F0EE
:103ED00080032B431360D062916212E0A0682169D5
:103EE00023F07003034323F440730B43A16923F0D1
:103EF00080030B431360E368D36263689362636972
:103F00001363012353611369DB0703D5136923F09E
:103F100001031361012384F8483084F83E3084F8AB
:103F20003F3084F8403084F8413084F8423084F8DF
:103F3000433084F8443084F8453084F8463084F8BF
:103F4000473084F83D30002038BDA168206923F057
:103F500070030B4323F44073A169034323F08003F0
:103F6000E0680B4361681360D0629162C9E780F832
:103F70003C20FFF771FF7CE7012070472069A169B1
:103F800023F440730343B2E72069A16923F440732B
:103F9000034323F080030B4304490B60E368CB62C7
:103FA00063688B62ABE700BF002C01400048014012
:103FB00090F83C20012A7AD0034630B402680224EB
:103FC000012083F83D4083F83C009568614C2C400B
:103FD00094600C68702C6CD027D8502C79D02DD8D8
:103FE000402C40F0A0804868CC68116A21F00A019A
:103FF0000843116A21F001011162916921F0F00179
:1040000041EA041191611062916821F4401121F09C
:10401000700141F04701916000200121002283F8E6
:104020003D1083F83C2030BC7047B4F5005F6AD087
:1040300021D8B4F5805018BF0120EEE7602CECD1F8
:104040004868CC68116A21F0A00141EA0011106AA9
:1040500020F010001062906920F4704040EA0430B3
:1040600090611162916821F4401121F0700141F0DA
:1040700067019160D0E738498C420ED05DD8203975
:104080008C420AD006D824F01001B1F5801F04D06C
:104090000120C2E731498C42FAD1916821F44011E4
:1040A00021F07001214341F007019160B4E7022043
:1040B0007047D1E9015094682843CD6824F47F41CA
:1040C00040EA052008439060916841F077019160D3
:1040D000A2E74868CC68116A21F00A010843116A16
:1040E00021F001011162916921F0F00141EA04110E
:1040F00091611062916821F4401121F0700141F04A
:104100005701916088E7D1E9015094682843CD6850
:1041100024F47F4140EA052008439060916841F40F
:104120008041916078E73FF678AF202CB5D00ED86B
:1041300034F010017FF471AFAFE709498C42ACD085
:1041400024F0200510398D427FF467AFA5E7302CAD
:10415000A3D09DE78800CEFF400010003000100083
:1041600060001000704700BF704700BF704700BF7D
:10417000704700BF036870B5DE681C69A20705467A
:1041800001D5B10768D4630701D5700754D421075E
:1041900001D532073ED4E00601D5F10626D4E20768
:1041A00001D5F3077AD414F4025F62D030067DD4CF
:1041B000600602D5710600F18480A20602D5B3061E
:1041C00000F18780E00202D5F10200F18A80A202AC
:1041D00002D5B30200F18D80600202D5710200F1B8
:1041E0009080220201D533024FD470BD2B686FF04E
:1041F00010021A6108222A77DB6913F4407F2846EF
:1042000040F09680FFF7AEFF2846FFF7AFFF002390
:104210002B77C4E72B686FF008021A6104222A7713
:10422000DB699B07284674D1FFF79CFF2846FFF700
:104230009DFF00232B77AEE72B686FF004021A6115
:1042400002222A779B6913F4407F284664D0FFF747
:104250008BFF00232B779AE76FF002021A6101228D
:1042600002779B699A075DD0FFF77EFF00232B77CB
:1042700089E7E2059CD533069AD52B686FF48072E6
:104280001A61284600F0EAF992E72B686FF4000201
:1042900028461A61BDE8704000F0E8B92B686FF05D
:1042A00001021A612846FDF71FF97CE72B686FF4BD
:1042B00002521A61284600F0CFF9E1057FF578AF88
:1042C000DBE72B686FF040021A612846FFF750FFCA
:1042D00073E72B686FF020021A61284600F0BAF9E4
:1042E00070E72B686FF480121A61284600F0B8F965
:1042F0006DE72B686FF400121A61284600F0B2F9DE
:104300006AE72B686FF480021A61284600F0ACF966
:1043100067E7FFF729FF8CE7FFF724FF2846FFF741
:1043200025FF96E7FFF71EFF2846FFF71FFF9DE7D3
:10433000FFF71AFF6BE700BF036A026A22F0100260
:1043400070B40262446882690D6822F0807222F4BF
:10435000E64242EA05228D6823F0200343EA051372
:10436000164DA84214D005F50065A84210D005F5F9
:10437000E055A8420CD0A5F58055A8420FD005F510
:104380008065A8420BD005F58065A8420FD106E0F4
:10439000CD6823F0800343EA051323F04003D1E9FD
:1043A000056524F4406446EA050C44EA8C04496837
:1043B0004460826170BC816303627047002C0140DD
:1043C00090F83C30012B00F0958070B50446142A1B
:1043D0000CD8DFE802F0460B0B0B4E0B0B0B520B0D
:1043E0000B0B560B0B0B5A0B0B0B1000002384F816
:1043F0003C30012070BD03680E681A6A186A20F408
:10440000801018625D68186D20F0807020F4E04024
:1044100040EA06208E6822F4001242EA0652364E26
:10442000B34213D006F50066B3420FD006F54066DE
:10443000B3420BD006F58066B34207D006F580661E
:10444000B34203D006F50066B34204D14E6925F4A9
:10445000802545EA862549685D601865D9641A6239
:1044600002E00068FFF746FB002384F83C300020A0
:1044700070BD0068FFF760FFF6E70068FFF77AFBA2
:10448000F2E70068FFF7BAFBEEE703680E681A6A06
:10449000186A20F4803018625D68186D20F480304E
:1044A00020F0700030438E6822F4003242EA064267
:1044B000114EB34213D006F50066B3420FD006F595
:1044C0004066B3420BD006F58066B34207D006F5CE
:1044D0008066B34203D006F50066B34204D14E694C
:1044E00025F4803545EA062549685D6018659964BC
:1044F0001A62B9E702207047002C014090F83C3066
:10450000012B4FD030B40268274D022380F83D3094
:10451000AA4253680C68844690681DD005F5006572
:10452000AA4234D005F5E055AA4215D023F0007315
:1045300023F070032343B2F1804F536017D18B688F
:1045400020F0800018439060002001238CF83D305B
:104550008CF83C0030BC70474D6823F470032B434B
:1045600023F0007323F0700323435360E7E70F4BFE
:104570009A42E4D003F580639A42E0D003F5806369
:104580009A42DCD003F59A339A42DDD1D7E74D68E1
:1045900023F470032B4323F0007323F070031C43B8
:1045A0005460CCE702207047002C0140000400401A
:1045B00090F83C30012B48D010B4D1E9024323F4E9
:1045C00040730246234348680C6823F48063034326
:1045D00023F400630869234323F480534C690343A5
:1045E00023F40053086B234323F480438C69034373
:1045F00023F47023C86943EA044323F08053144C26
:1046000003431068A04207D004F50064A04203D021
:1046100004F5E054A04210D18C6A23F4700343EAFD
:1046200004530C6A23F0807323434C6AC96A23F055
:104630000073234323F000530B430021436482F8AB
:104640003C1008465DF8044B70470220704700BFDD
:10465000002C0140704700BF704700BF704700BF8B
:10466000704700BF704700BF704700BF704700BF72
:104670002DE9F8430446D0F8880020285ED10D4685
:1046800009B1164612B90120BDE8F8831F464FF064
:1046900000082123C4F89080C4F88830FDF7E4F9BD
:1046A000A368A4F85460B3F5805F8146A4F856600F
:1046B00047D0B4F8563022689BB2002B4DD07B1CFB
:1046C0002AD1D3691F06FCD5002D32D015F8013B45
:1046D0009362B4F85630013B9BB2A4F85630B4F85C
:1046E00056309BB2002BECD1D3695906FCD5202360
:1046F000C4F888300020BDE8F883002D40D015F8BC
:10470000013B9362B4F85630013B9BB2A4F856309B
:10471000B4F856309BB213B3D3691E06EDD4FDF73F
:10472000A3F9A0EB09039F4211D387B12268136854
:10473000F2E738F8023BC3F30803C9E70220BDE8FB
:10474000F8832369002BB4D1A8461D46B1E7202386
:10475000C4F888300320BDE8F883781CC4D0D3693E
:104760005B06C4D4FDF780F9A0EB09039F42EED3AA
:10477000002FECD022681368D3695B06F2D5B6E748
:1047800038F8023BC3F30803BBE700BF70B504462B
:1047900003688268006961691D6802430A43E06931
:1047A0009749024329400A431A605A68E168656ADA
:1047B00022F440520A4393495A608B429968A26995
:1047C00021F06E4121F4306100F0C180266A32434D
:1047D0000A439A60DA6A22F00F022A43DA628A4AAE
:1047E000934239D0894A934211D0894A934259D091
:1047F000884A934244D0884A934200F09B8001202B
:1048000000234FF00112C4E91D33A26670BD834B33
:10481000D3F8883003F00C030C2BF0D801A252F827
:1048200023F000BF29490008FF470008FF470008A0
:10483000FF47000897480008FF470008FF470008A7
:10484000FF470008EB480008FF470008FF47000843
:10485000FF470008B9480008704BD3F8883003F0D0
:104860000303022B41D0032B26D0012B13D0B0F52C
:10487000004F00F0B380FEF79FFFA0B3656A20E011
:10488000664BD3F8883003F0C003802B2DD000F2A4
:104890009B80002B48D0B0F5004F00F0A780FEF7BA
:1048A00037FEEAE75D4BD3F8883003F03003202B66
:1048B0001BD0EED9302BA2D1B0F5004F19D04FF458
:1048C00000406368564A32F81510B0FBF1F04FF61D
:1048D000EF7200EB5300B0FBF3F0A0F11003934232
:1048E0008DD82368D86000208AE7B0F5004F4D4886
:1048F000E7D162684A4B33F81510B0FBF1F053086A
:1049000003EB40034FF6EF71B3FBF2F3A3F1100298
:104910008A423FF674AF23F00F02216892B2C3F3CC
:1049200042031343CB60DEE7B0F5004F50D0FEF7F3
:1049300031FFA2E7394BD3F8883003F44073B3F565
:10494000007FD2D0A5D9B3F5407FB5D057E711434A
:104950009960DA6A314922F00F022A43DA62D1F80B
:10496000883003F44063B3F5006F3AD041D8002B90
:1049700039D0FEF7CDFD0028B5D0656A6668284BB2
:1049800006EB460133F81520B0FBF2F399423FF6EF
:1049900036AFB3EB063F3FF632AF00231946FCF7C4
:1049A0009BF972080302090241EA1061981841F16B
:1049B000000132460023FCF78FF91B4BA0F5407233
:1049C0009A423FF61CAF8CE7C02B3FF475AF16E759
:1049D000FEF7E0FE002886D0656A8AE7FEF7ECFE67
:1049E000F8E71048CAE7FEF7D5FEC4E7FEF790FDEA
:1049F000F0E7B3F5406F7FF402AF4FF40040BDE73E
:104A0000F369FFCF008000400038014000440040BF
:104A100000480040004C00400050004000100240A0
:104A200058B200080024F400FFFC0F00836A1A0744
:104A300010B406D50168846B4A6822F40042224310
:104A40004A60DC0706D50168C46A4A6822F400326D
:104A500022434A60990706D50168046B4A6822F42C
:104A6000803222434A605A0706D50168446B4A687F
:104A700022F4802222434A60DC0606D50168C46B1A
:104A80008A6822F4805222438A60990606D501681A
:104A9000046C8A6822F4005222438A605A0609D5BF
:104AA0000168446C4A6822F480122243B4F5801FE6
:104AB0004A600BD01B0606D50268C16C536823F40C
:104AC00000230B4353605DF8044B70474A68846CC5
:104AD00022F4C00222434A60ECE700BF38B500234D
:104AE0000446C0F89030FCF7BFFF226813681B072C
:104AF00005460FD41368590731D400232022C4F887
:104B000088201846C4F88C20E3662367002384F8C5
:104B1000843038BDD3699802ECD40CE01968490799
:104B20001A4605D5D96908074AD4D969090575D443
:104B3000DB699802DED4FCF797FF431BB3F1007FDB
:104B40002368EBD353E8002F22F0800243E80021D2
:104B50000029F7D12023C4F888300320D6E7D36991
:104B60005B02CAD40DE01A68500707D5DA6911074D
:104B700000F18280DA69120500F1AC80DB695B022A
:104B8000BBD4FCF771FF431BB3F1007F2368EAD36A
:104B900053E8002F22F4907243E800210029F7D156
:104BA00003F1080252E8002F22F0010203F108008D
:104BB00040E800210029F3D12023C4F88C30CCE751
:104BC00008221A6253E8002F22F4907243E8002171
:104BD0000029F7D1564803F1080252E8002F02409D
:104BE00003F1080545E800210029F4D1E26E012A0D
:104BF0000BD0002220200821C4F88C006267E266F6
:104C000084F88420C4F890109CE753E8002F22F029
:104C1000100243E800210029F7D1EAE74FF40062CF
:104C20001A6253E8002F22F4907243E80021002911
:104C3000F7D13F4803F1080252E8002F024003F188
:104C4000080545E800210029F4D1E26E012A0AD0C6
:104C500000222021C4F88C106267E26684F8842068
:104C6000C4F890106EE753E8002F22F0100243E8DA
:104C700000210029F7D1EBE708221A6253E8002F40
:104C800022F4907243E800210029F7D1284803F16B
:104C9000080252E8002F024003F1080545E8002110
:104CA0000029F4D1E26E012A0BD000222020082135
:104CB000C4F88C006267E26684F88420C4F890101F
:104CC00066E753E8002F22F0100243E80021002994
:104CD000F7D1EAE74FF400621A6253E8002F22F49A
:104CE000907243E800210029F7D1114803F108022E
:104CF00052E8002F024003F1080545E80021002991
:104D0000F4D1E26E012A0AD000222021C4F88C10CE
:104D10006267E26684F88420C4F8901038E753E8AC
:104D2000002F22F0100243E800210029F7D1EBE721
:104D3000FEFFFFEF80B3D0F8883010B5044633B3E0
:104D40002268A16A2423C4F88830136823F0010381
:104D50001360C1B92046FFF719FD012811D023685F
:104D60005A6822F490425A609A6822F02A029A60A5
:104D70001A6842F0010220461A60BDE81040FFF7B1
:104D8000ADBE012010BD2046FFF750FEE2E780F8DF
:104D90008430FCF71DFDD3E70120704790F8843084
:104DA000012B17D00268242310B4C0F88830116892
:104DB0001468002324F0010421F0005114604366BC
:104DC000116080F884302022C0F888205DF8044B00
:104DD000184670470220704790F88420012A37D087
:104DE00003460268242030B5C3F8880014681068B0
:104DF00020F001001060906820F060400143586E80
:104E0000916010B391689068124DC1F3426C4FEA03
:104E1000507E114911F80E0011F80C1015F80EE033
:104E200015F80C50C000C900B0FBFEF0B1FBF5F165
:104E3000A3F868100021A3F86A002025146083F805
:104E400084100846C3F8885030BD01210846EFE7BA
:104E50000220704770B2000878B2000890F88420F1
:104E6000012A37D003460268242030B5C3F88800F1
:104E70001468106820F001001060906820F06060F5
:104E80000143586E916010B391689068124DC1F360
:104E9000426C4FEA507E114911F80E0011F80C10C7
:104EA00015F80EE015F80C50C000C900B0FBFEF07C
:104EB000B1FBF5F1A3F868100021A3F86A002025E2
:104EC000146083F884100846C3F8885030BD01216F
:104ED0000846EFE70220704770B2000878B2000879
:104EE0002DE9F04F2DED108BD0ED153A9FEDEA9A9C
:104EF000D0ED11BA90ED2E8AD0ED348AC16C826C5F
:104F0000036DD0F800B0D0ED2FCAB7EE00BA00267E
:104F1000B3B0B0EE480AC0F8AC11C0ED6D3AC0EDC8
:104F200069BAC0F8A821C0F8B031066080ED5E9A79
:104F300080ED5F9A80ED5D9A80ED659A80ED679ACD
:104F400080ED689A80ED639A80ED039A80ED049A73
:104F5000C0ED618A80ED70BA0446CDED003A05F0EF
:104F6000EDFB2CEE80DAB0EE480A84ED5CDA05F059
:104F700029FC94ED57EA94ED2DAAD4ED2CAAC4EDAA
:104F8000058ACBEE0E9A0DF1B0080DF1080A042542
:104F900005276CEE80CA6AEE29FA2AEEA98AF1EE9C
:104FA0006F7AB0EE6B0AC4ED5BCA84ED07BA84ED8C
:104FB000649A84ED669ACDED0F7A8DED109A8DEDA1
:104FC000119A8DED0E8A05F0FDFBB0EE40CAB0EEF1
:104FD0006B0A05F0B3FB94ED477AD4ED455A94ED96
:104FE000405AD4ED496A94ED3E3A94ED4B2AD4ED03
:104FF0000BEA94ED0FFAD4ED43BADDED003ACDEDB6
:1050000014FA35EEE64A65EE074A63EE252A64EEA9
:10501000844A76EEE56A84EEA24A02230322012145
:105020000EA896469C4675EEC75A76EE846A75EED3
:10503000C45A66EE836A65EE855A2EEE055AD4EDA3
:105040004A2A8DED158A85EE854A6EEE035AFFEEEB
:10505000004A8BEE255AD4ED4C5A8DED169AA6EEE9
:10506000854AD4ED4D6ACDED1D5AB0EE4B5AA5EEF2
:10507000825AB0EE643AA2EEA63A66EE821AA2EE28
:10508000E65AA5EEC23AB0EE612AA5EEA22A2AEEB1
:10509000855A6EEE8CDAA2EE4A5A2CEE0FCA2FEE2B
:1050A000006A6CEE032ACDED225AE2EE462A75EE36
:1050B000855A2CEE025ACDED1A5AA6EE035ACDEDC2
:1050C000215A62EEC75A2AEE033AEBEE855AA2EE57
:1050D0006A3A69EEA55A63EEA93AE2EEC45ACDEDFA
:1050E000236ACDED1F5A67EE055A8DED179AEBEE48
:1050F000A25A6EEE807A69EEA55A2AEE2D1AE5EED6
:10510000045ACDED255AD4ED465A25EE852A65EE92
:10511000A21AABEEA22A22EE292A8DED1E2AB0EEAB
:105120006C2AA2EEA32ACDE90432F0EE612AEBEE5E
:10513000C52A03910296F0EE4D1AE5EE231A0346B6
:10514000324629EEA25AD4ED4F2A8DED245AB0EE04
:10515000495AAAEEA75A8DED0B2A35EE415AAAEE0E
:10516000E71A8DED135A2AEE275A73EE667A36EE59
:10517000C33AF1EE666ACDED1C6AD4ED506ACDED0E
:105180001B7AF0EE4B7AE6EEA27A94ED4E2A8DED84
:10519000203AAAEEAD5A94ED513A8DED125AE3EE53
:1051A000427A8DED195AB0EE645AA3EE025AF0EE2F
:1051B000674A62EE837AA6EEE25AE6EE827A8DEDD7
:1051C000283AB1EE433A8DED2F3A26EE273A26EEF5
:1051D000056AF0EE432AACEE276AECEE452A9CEE17
:1051E000053AF1EE666ACDED296ACDED2E6A67EEDD
:1051F000226A27EE067AEBEE866AABEE837AA6EE9B
:1052000023DAE3EE23CA69EEA66A65EE833A29EE55
:10521000877AE2EE846AA6EE047AEBEEC63A65EE91
:10522000865ACDED2B6A8DED317A69EEA36A2AEEAE
:10523000A77AEBEE835A67EECA7ACDED306AF0EECC
:10524000476AEAEEA47AAAEE457ADAEE056A29EE12
:10525000A56ACDED267A8DED181ACDED0A1A8DEDE1
:10526000089A8DED099A8DED0CDACDED0DCA8DED14
:105270002A6ACDED276A8DED2C7ACDED2D7A9FED42
:10528000047BCDE9004B8DED067B07E0AFF300809A
:10529000040000000500000000000000D3ED067AC5
:1052A000B0EEC87AF0EEE77AB4EEE77AF1EE10FAF3
:1052B00002F1010B5ABFF0EE477A11465946BCF194
:1052C000060F37D093ED0C7AB0EEC77AF4EEC77ABA
:1052D000F1EE10FA48BF614648BFF0EE477ABEF1E2
:1052E000060F27D093ED127AB0EEC77AF4EEC77AA4
:1052F000F1EE10FA48BF714648BFF0EE477A062D2E
:1053000018D093ED187AB0EEC77AF4EEC77AF1EEC2
:1053100010FA48BF294648BFF0EE477A062F09D059
:1053200093ED1E7AB0EEC77AB4EE677AF1EE10FA1A
:10533000C8BF05218A4250D00EAC01EB410290ED6E
:10534000007A04EBC209D9ED007A89ED007AD20027
:105350000432C0ED007A90ED017A04EB0209D9ED38
:10536000007A89ED007A02F10409C0ED017A90ED2E
:10537000027AA144D9ED007A89ED007A02F1080998
:10538000C0ED027A90ED037AA144D9ED007A89ED5F
:10539000007A02F10C09C0ED037AA14490ED047A81
:1053A000D9ED007A89ED007A10322244C0ED047AFA
:1053B000D0ED057AD2F80090C2ED007A02AAC0F8CA
:1053C00014900DF1080952F82120DAF8004093ED0D
:1053D000008A49F82140CAF80020B5EE408AF1EE73
:1053E00010FA45D1DDE9004B9A4FD7F80080B8F1AB
:1053F000000F00F09780984BA26DD4ED058A94EDD4
:10540000615AD4ED174AC4F8D031C4F8CC31C4F88D
:10541000C431C4F8C831C4F8B82146F0080694ED88
:10542000357AD4ED367AD4ED026A94ED086A226FAB
:10543000C4ED6F4AC7EE275A4BEA0606C4F880212E
:105440002660F7EE007A36EEA87A77EEE57A37EE48
:10545000457A67EE867AC4ED0A8A67EE877AC4EDEC
:10546000096AC4ED627A33B0BDEC108BBDE8F08FF1
:10547000009C1A4601E093ED008AD2ED066AD2ED57
:10548000077A86EE887ABCF1060F82ED067A93EDF4
:10549000016AE7EE467AF1EE476AC2ED077A26D056
:1054A00093ED027AD2ED087AE6EE877ABEF1060F26
:1054B000C2ED087A1BD093ED037AD2ED097AE6EEBD
:1054C000877A062DC2ED097A11D093ED047AD2EDD8
:1054D0000A7AE6EE877A062FC2ED0A7A07D0D2ED75
:1054E0000B7A93ED057AE7EE267AC2ED0B7A183245
:1054F0004245C0D1BBF1050F009408F1040807F143
:1055000001070CF1010C0EF1010E05F101050AF184
:10551000040A00F1180000F0A5801C335A4693EDF0
:10552000008ABBE602F084FE03464146C3F80080D1
:105530004A484B4D02F048F885ED000A02F078FE2B
:105540000368002B6DD14FF07E5300262B6008932B
:105550003E6002F06DFE034631461E603F4802F099
:1055600033F885ED000A02F063FE0368002B6DD16D
:105570004FF07E5300262B6009933E6002F058FEE8
:10558000034631461E60354802F01EF885ED000ADC
:1055900002F04EFE0368002B54D14FF07E530026DC
:1055A0002B600A933E6002F043FE034631461E60C4
:1055B0002A4802F009F885ED000A02F039FE036876
:1055C000002B3BD14FF07E5300262B600B933E60A7
:1055D00002F02EFE034631461E60204801F0F4FF23
:1055E00085ED000A02F024FE03681BBB4FF07E53DA
:1055F00000262B600C933E6002F01AFE03463146F3
:105600001E60164801F0E0FF85ED000A02F010FE72
:1056100003685BB94FF07E52002326682A603B6026
:10562000E9E602F005FEC0F800808CE702F000FE1B
:105630000660EFE702F0FCFD0660D7E702F0F8FD38
:105640000660BFE702F0F4FD0660A6E702F0F0FD99
:1056500006608DE7980500207D1D902680B2000829
:1056600094050020DDED311AF5EE401AF1EE10FA46
:10567000DDE9004B3FF4B8AEDDE9042332A802991E
:10568000DDED142A9DED1A3ADDED203A9DED264A16
:10569000DDED2C4A9DED2B1A9DED2A2A00EB8202AE
:1056A00052ED2A6A00EB810100EB8300DDE906235D
:1056B00051ED2A7A10ED2A6A32A901EB820132AA51
:1056C00002EB8302039B12ED2A5A51ED2A5A32AAA9
:1056D00002EB830313ED2A7AE7EEC36A0026A7EEF6
:1056E000E27AA7EEE36AE7EEC45AA7EEE45A9DED2C
:1056F0001B3ADDED213A9DED274ADDED2D4ADDED2A
:10570000252AE7EE436AA7EE636AE7EE445AA4EE61
:10571000C75ADDED223A9DED284ADDED2E4A9DED7A
:10572000243AA6EEE36AE6EEC45AA4EEE65A9DEDEC
:10573000294ADDED2F4ADDED233AE6EE445AA4EE88
:10574000C65ADDED304ADDED1D0A9DED1E4AA4EE80
:10575000E55AC5EE214A9DED1F5ADDED1C1AE4EE17
:10576000C15AE4EEC56A85EE825AA4EEE26ADDED26
:10577000192ADDED185A9DED171A9DED162A84EDB4
:105780006E5AA5EE436AA4EEE27AE5EE446AA5EE0F
:10579000657AC6EE235A9DED134A9DED116A9DED83
:1057A000153ADDED102ADDED0F3AC4ED725AE4EE44
:1057B000647A9DED124AE5EEE06AE4EE457AA5EEE4
:1057C000C17AE6EE657A86EEA16A9DED0E4A84ED19
:1057D000716AA6EE427AE2EEC67AC7EE036AB0EECE
:1057E000685AE3EEE67AC4ED736A87EE847A84ED54
:1057F000747A14E62DE9F04F834C8449DFF8C0C277
:105800009FED835A9FED830ADFED830A9FED831A94
:10581000DFF8B0B2DFF8B0A2DFF8B092DFF8B08204
:105820007F4F804E804DDFED815A9FED816ADFED25
:10583000816A9FED817ADFED817ADFED811A9FED3C
:10584000812ADFED812A9FED813ADFED813A9FEDDC
:10585000814ADFED814ADFF87CE22DED0C8BC0F848
:10586000DC40C0F810417D4CC0F8FC407C4CC0F8D6
:1058700024417C4CC0F814417B4CC0F800417B4C67
:10588000C0F848417A4CC0F80C417A4CC0F8184135
:10589000794CC0F83441794CC0F84441784CC0F898
:1058A000E040784CC0F8E840774CC0F80441774CB1
:1058B000DFED77CA9FED77CADFED77BA9FED77BA54
:1058C000DFED77AA9FED77AADFED779A9FED779AC4
:1058D000DFED778A9FED778AC0F8681100224FF0DC
:1058E0007E51C0F82041B5EE00DA734CC0F85C116F
:1058F000C0F8D410C0F8D810C0F8F810C0F83021A3
:10590000C0F82C21C0F82821C0F84021C0F8382167
:10591000C0F83C21C0F8C8C0C0F808C1C0F8E440D5
:1059200080ED47DAB2EE00DAC0F8EC4080ED3DDA07
:10593000C0F8D010C0ED33CA80ED31CAC0ED30BA26
:1059400080ED53BAC0ED59AA80ED2BAAC0ED2A9A7A
:1059500080ED2D9AC0ED1E8A80ED0B8AC0F860B0F4
:10596000C0F868A0C0F89C90C0F89880C0F88C700F
:10597000C0F88060C567C0F8BC10C16380ED290A1B
:10598000C0ED280A80ED111AC0F8B82080ED3C5A0D
:1059900080ED545AC0F86021C0F854C1C0F858C115
:1059A000C0F8B020BDEC0C8B00244449C0ED0E5A69
:1059B000C0E90044C0ED105A016280ED256A80ED17
:1059C0001B6AC0ED191A80ED152AC0ED142A80ED6E
:1059D000123AC0ED0C3A80ED0D4AC0ED134A8260D8
:1059E000C0ED246AC0ED1D6A80ED227A80ED167A42
:1059F000C0ED217AC0ED177AC0F870E0C0F818E069
:105A0000BDE8F04FFFF76CBA9A99993E17B7D138B5
:105A10008352044F54764E3F50EE0E4024B49C3FC8
:105A200035DE1AC1B770B141E06E773F2781383D4E
:105A3000FAA22A3F87D63E3F5CC76C3F65B6C23E9E
:105A4000735FA041D496753F0602133FDC4FD23EF0
:105A50006DB9C03F3B40983DB184833F8FC2F53C58
:105A6000AE47E13F6666263F295C8F3D20BCBE4CB9
:105A7000A69B443B1F856B3E2781B83CD5962B3DAA
:105A80008FC2753CCDCCCCC06F12033B14AEE73F48
:105A90005446FD3E74C5664E1F2EEE4E0000704209
:105AA0009A99193EE72490420000C844CA67DD3B3A
:105AB000DD7EBC439A99B1410000E0400000F04116
:105AC0000050C3480AD79F4135DE1A41AD4F613FB0
:105AD0001D12F33EC6EC1A402DE9F04FD0ED5A7A74
