:020000040800F2
:1000000000300020E10E0008950E0008990E00084F
:100010009D0E0008A10E0008A50E000800000000BB
:10002000000000000000000000000000A90E000811
:10003000AD0E000800000000B10E0008B50E00086B
:10004000310F0008310F0008310F0008310F000890
:10005000310F0008310F0008310F0008310F000880
:10006000310F0008310F0008310F0008310F000870
:10007000310F0008310F0008310F0008310F000860
:10008000310F0008310F0008310F0008310F000850
:10009000310F0008310F0008310F0008310F000840
:1000A000310F0008B90E0008310F0008310F0008A9
:1000B000310F0008310F000800000000310F000868
:1000C000310F00080000000000000000310F0008A0
:1000D00000000000310F0008310F0008310F000848
:1000E000C50E0008310F00080000000000000000ED
:1000F0000000000000000000000000000000000000
:1001000000000000000000000000000000000000EF
:100110000000000000000000310F0008310F00084F
:1001200000000000000000000000000000000000CF
:1001300000000000000000000000000000000000BF
:10014000310F0008310F000800000000310F0008D7
:10015000310F0008310F0008310F0008310F00087F
:10016000310F0008310F00080000000000000000FF
:10017000000000000000000000000000000000007F
:0801800000000000310F00082F
:1001880010B5054C237833B9044B13B10448AFF3C9
:1001980000800123237010BD200000200000000013
:1001A8008834000808B5034B1BB103490348AFF373
:1001B800008008BD000000002400002088340008EA
:1001C80070B54FF0FF0C4CF4E06C1CEA11541DBFE5
:1001D8001CEA135594EA0C0F95EA0C0F00F0DEF8B0
:1001E8002C4481EA030621EA4C5123EA4C5350EA95
:1001F800013518BF52EA033541F4801143F48013E6
:1002080038D0A0FB02CE4FF00005E1FB02E506F076
:100218000042E0FB03E54FF00006E1FB03569CF0CB
:10022800000F18BF4EF0010EA4F1FF04B6F5007FD1
:1002380064F5407404D25FEA4E0E6D4146EB060643
:1002480042EAC62141EA55514FEAC52040EA5E50CC
:100258004FEACE2EB4F1FD0C88BFBCF5E06F1ED876
:10026800BEF1004F08BF5FEA500E50F1000041EBAD
:10027800045170BD06F0004646EA010140EA02005A
:1002880081EA0301B4EB5C04C2BFD4EB0C0541EA7C
:10029800045170BD41F480114FF0000E013C00F391
:1002A800AB8014F1360FDEBF002001F0004170BDB5
:1002B800C4F10004203C35DA0C341BDC04F11404CE
:1002C800C4F1200500FA05F320FA04F001FA05F25A
:1002D80040EA020001F0004221F0004110EBD37027
:1002E80021FA04F642EB06015EEA430E08BF20EA53
:1002F800D37070BDC4F10C04C4F1200500FA04F3F6
:1003080020FA05F001FA04F240EA020001F0004187
:1003180010EBD37041F100015EEA430E08BF20EAFA
:10032800D37070BDC4F1200500FA05F24EEA020E42
:1003380020FA04F301FA05F243EA020321FA04F071
:1003480001F0004121FA04F220EA020000EBD37028
:100358005EEA430E08BF20EAD37070BD94F0000F28
:100368000FD101F00046400041EB010111F4801F5C
:1003780008BF013CF7D041EA060195F0000F18BF0D
:10038800704703F00046520043EB030313F4801F49
:1003980008BF013DF7D043EA0603704794EA0C0F03
:1003A8000CEA135518BF95EA0C0F0CD050EA410619
:1003B80018BF52EA4306D1D181EA030101F0004196
:1003C8004FF0000070BD50EA410606BF10461946BE
:1003D80052EA430619D094EA0C0F02D150EA0136CA
:1003E80013D195EA0C0F05D152EA03361CBF10460B
:1003F80019460AD181EA030101F0004141F0FE41AA
:1004080041F470014FF0000070BD41F0FE4141F42D
:10041800780170BD81F0004102E000BF83F0004325
:1004280030B54FEA41044FEA430594EA050F08BF87
:1004380090EA020F1FBF54EA000C55EA020C7FEA4B
:10044800645C7FEA655C00F0E2804FEA5454D4EBC8
:100458005555B8BF6D420CDD2C4480EA020281EA92
:10046800030382EA000083EA010180EA020281EACA
:100478000303362D88BF30BD11F0004F4FEA01311C
:100488004FF4801C4CEA113102D0404261EB41012B
:1004980013F0004F4FEA03334CEA133302D05242B1
:1004A80063EB430394EA050F00F0A780A4F101046D
:1004B800D5F1200E0DDB02FA0EFC22FA05F28018A7
:1004C80041F1000103FA0EF2801843FA05F359418D
:1004D8000EE0A5F120050EF1200E012A03FA0EFC0C
:1004E80028BF4CF0020C43FA05F3C01851EBE37136
:1004F80001F0004507D54FF0000EDCF1000C7EEB53
:1005080000006EEB0101B1F5801F1BD3B1F5001F90
:100518000CD349085FEA30004FEA3C0C04F10104AF
:100528004FEA445212F5800F80F09A80BCF1004FD8
:1005380008BF5FEA500C50F1000041EB045141EA5A
:10054800050130BD5FEA4C0C404141EB0101013C23
:1005580028BFB1F5801FE9D291F0000F04BF014612
:100568000020B1FA81F308BF2033A3F10B03B3F1E4
:1005780020020CDA0C3208DD02F1140CC2F10C0274
:1005880001FA0CF021FA02F10CE002F11402D8BFD2
:10059800C2F1200C01FA02F120FA0CFCDCBF41EA9E
:1005A8000C019040E41AA2BF01EB0451294330BD6D
:1005B8006FEA04041F3C1CDA0C340EDC04F114044A
:1005C800C4F1200220FA04F001FA02F340EA030021
:1005D80021FA04F345EA030130BDC4F10C04C4F167
:1005E800200220FA02F001FA04F340EA0300294647
:1005F80030BD21FA04F0294630BD94F0000F83F491
:10060800801306BF81F480110134013D4EE77FEA73
:10061800645C18BF7FEA655C29D094EA050F08BFBF
:1006280090EA020F05D054EA000C04BF19461046A0
:1006380030BD91EA030F1EBF0021002030BD5FEAE4
:10064800545C05D14000494128BF41F0004130BD0C
:1006580014F580043CBF01F5801130BD01F0004560
:1006680045F0FE4141F470014FF0000030BD7FEAD3
:10067800645C1ABF194610467FEA655C1CBF0B46CE
:10068800024650EA013406BF52EA033591EA030FE5
:1006980041F4002130BD00BF90F0000F04BF0021DD
:1006A800704730B54FF4806404F132044FF0000510
:1006B8004FF0000150E700BF90F0000F04BF002189
:1006C800704730B54FF4806404F1320410F00045EF
:1006D80048BF40424FF000013EE700BF42004FEAEA
:1006E800E2014FEA31014FEA02701FBF12F07F4367
:1006F80093F07F4F81F06051704732F07F4208BF1E
:10070800704793F07F4F04BF41F40021704730B524
:100718004FF4607401F0004521F000411CE700BF70
:1007280050EA010208BF704730B54FF000050AE0F3
:1007380050EA010208BF704730B511F0004502D5F4
:10074800404261EB41014FF4806404F132045FEAF6
:10075800915C3FF4D8AE4FF003025FEADC0C18BF9F
:1007680003325FEADC0C18BF033202EBDC02C2F191
:10077800200300FA03FC20FA02F001FA03FE40EA23
:100788000E0021FA02F11444BDE600BF4A0011D25E
:1007980012F5001211D20DD56FF47873B3EB6252D3
:1007A8000ED44FEAC12343F0004343EA505323FADF
:1007B80002F070474FF00000704750EA013002D154
:1007C8004FF0FF3070474FF0000070474FEA41028A
:1007D800B2F1E04324BFB3F5001CDCF1FE5C0DD997
:1007E80001F0004C4FEAC0024CEA5070B2F1004FE1
:1007F80040EB830008BF20F00100704711F0804FE4
:1008080021D113F13872BCBF01F00040704741F4A8
:1008180080114FEA5252C2F11802C2F1200C10FAAC
:100828000CF320FA02F018BF40F001004FEAC12390
:100838004FEAD32303FA0CFC40EA0C0023FA02F334
:100848004FEA4303CCE77FEA625307D150EA01330A
:100858001EBF4FF0FE4040F44000704701F00040DA
:1008680040F0FE4040F40000704700BF10B551EC66
:10087800100BFFF7ABFF014C606010BD3C0000207F
:1008880040B1054B10B504469868FFF727FFC4E947
:10089800000110BD704700BF4400002010B5074C90
:1008A800CC222046002102F0BFFD054B0022C3E9FF
:1008B80000222046BDE8104002F0AABC44000020F7
:1008C8003C000020024B03485B68436002F016BD01
:1008D8003C0000204400002010B598B000230120FF
:1008E80001224FF4A021CDE91033CDE91333CDE92E
:1008F8000E01CDE90133CDE90333CDE90533CDE967
:100908000733CDE90933CDE90B33022412924FF4B2
:10091800E0134FF480320EA8CDE91542179301F089
:1009280005FB08B172B6FEE70F220346019201A843
:100938004FF480622146CDE903320294059301F019
:10094800B7FD08B172B6FEE79FED077B4FF48453FD
:1009580006A88DED0A7B069301F0D2FE08B172B6A7
:10096800FEE718B010BD00BF000100000000000045
:1009780000B500248FB000F0FDFAFFF7ADFFCDE918
:100988000844CDE90A447D4B0C94596941F400218F
:100998005961586900F4002001900198586940F4A1
:1009A80080005861586900F48000029002985869E4
:1009B80040F400305861586900F4003003900398FF
:1009C800586940F4802058615B6903F4802322460B
:1009D800202104934FF09040049B01F089FA684865
:1009E80022464FF4A07101F083FA4FF400524FF4FD
:1009F800041363480A9408A9CDE9082301F0D6F83E
:100A080020230DEB030101254FF09040CDE9083577
:100A1800CDE90A4401F0CAF84FF4A073584808A970
:100A2800CDE90835CDE90A4401F0C0F8224621464F
:100A3800282000F0CDFF282001F006F85148DFF803
:100A48005CC14FF41643C0E900C30C23C0E902445B
:100A5800C0E90443C0E90644C0E9084402F0E6FAE4
:100A680008B172B6FEE7484C05904FF0A043CDE9B7
:100A78000800CDE90A00CDE90C00C4E90100C4E989
:100A88000A50CDE906002360206184F82000E06068
:100A980084F830002083606304232046E5616361A5
:100AA80000F068FB08B172B6FEE7059005A920467C
:100AB80000F00AFF034608B172B6FEE7204608A90F
:100AC800CDE90855CDE90A33CDE90C3300F06CFDCA
:100AD80060B92E4D2E4A0A90CDE9080028462A60B2
:100AE80000F0DAFF024618B172B6FEE772B6FEE70A
:100AF8000223089008A928460A9301F025F808B1AE
:100B080072B6FEE7234C244A07908023A36147234B
:100B1800CDE90800CDE90A00CDE90500C4E90400E3
:100B2800C4E90023102140F2E7332046C4E9021348
:100B380001F0A0FE08B172B6FEE74FF4805308A991
:100B48002046089301F056FF034608B172B6FEE747
:100B580005A92046CDE90533079302F0A7F8014619
:100B680008B172B6FEE7284600F0C4FF204601F03F
:100B780011FF62B6FFF792FEFEE700BF00100240C9
:100B8800000800481801002000020020EC010020A5
:100B980000980040A0010020002C014000440040C3
:100BA8003D4B02689A4200D0704770B53B483C4EB6
:100BB800402101F0A3F901224FF48071374801F078
:100BC80097F9384800F0DEFB0A21364800F06AFC45
:100BD800344800F0E5FC0446A4B2324800F03EFC7C
:100BE80007EE904A9FED307AF8EE677A67EE877ADB
:100BF80017EE900AFFF772FD21A3D3E90023FFF750
:100C0800DFFA21A3D3E9002304460D46D6E9000103
:100C1800FFF7D6FA02460B4620462946FFF700FCA6
:100C280041EC170B214B224CB0EE470AF0EE670A55
:100C3800C3E90001C6E90001FFF718FEFFF742FE0D
:100C48002046FFF71DFED4E900011A4B0022FFF7EA
:100C5800E7FB0FA3D3E90023FFF7B2FAFFF796FDEE
:100C6800002211460346144800F02CFFBDE87040EE
:100C78000A4800224FF4807101F03AB9AFF30080BE
:100C8800FCA9F1D24D62603F560E2DB29DEFEF3FA9
:100C98008C2EBAE8A2639340002C0140000800485B
:100CA80008000020000200206840533A000000209D
:100CB800100100200000F03FEC0100200B4B9A6966
:100CC80042F0010282B09A619A6902F00102009230
:100CD800009ADA6942F08052DA61DB6903F08053E6
:100CE8000193019B072002B000F060BE0010024093
:100CF80000B5026889B00023B2F1A04FCDE90233F4
:100D0800CDE90433069302D009B05DF804FB03F182
:100D1800804303F504339FED107B5A6942F08052FB
:100D28005A615A6902F080520092009A5A6942F454
:100D380000325A615B6903F40033019302A94FF052
:100D480090408DED027B019B00F030FF09B05DF80B
:100D580004FB00BFAFF300800100000003000000A7
:100D680000B51B4A016889B000239142CDE90233DE
:100D7800CDE90433069302D009B05DF804FB03F112
:100D8800804303F504339FED107BDA6942F08062FB
:100D9800DA61DA6902F080620092009A5A6942F4D4
:100DA80000325A615B6903F40033019302A94FF0E2
:100DB80090408DED027B019B00F0F8FE09B05DF8D4
:100DC80004FB00BFAFF300804000000003000000F8
:100DD800009800400E4B02689A4200D0704700B558
:100DE80003F5644383B0986940F4006098619B6997
:100DF800002203F40063019311461920019B00F0BF
:100E0800E7FD192003B05DF804EB00F01DBE00BF3C
:100E1800002C01400000000010B51B4A016888B092
:100E280000239142CDE90233CDE90433069301D082
:100E380008B010BD03F1804303F504339FED107B28
:100E4800DA6942F40032DA61DA6902F400320092B7
:100E5800009A5A6942F400325A615B6903F400331C
:100E680001930322072302A94FF090408DED027BE6
:100E7800CDE90523019C00F099FE08B010BD00BF24
:100E88000C0000000200000000440040FEE700BF24
:100E9800FEE700BFFEE700BFFEE700BFFEE700BFBA
:100EA800704700BF704700BF704700BF00F074B8BC
:100EB800014801F051BE00BFA00100204FF40050CE
:100EC80001F028B8034AD2F8883043F47003C2F816
:100ED8008830704700ED00E0DFF834D0FFF7F2FF0C
:100EE8000C480D490D4A002302E0D458C45004337D
:100EF800C4188C42F9D30A4A0A4C002301E0136053
:100F08000432A242FBD302F097FAFFF731FDFEE765
:100F180000300020000000201C000020E4340008FD
:100F28002000002054020020FEE7000038B50E4AD9
:100F38000E4B1278054618684FF47A73B3FBF2F338
:100F4800B0FBF3F000F08EFD08B90F2D01D9012098
:100F580038BD0446024629464FF0FF3000F038FD00
:100F6800034B20461D6038BD1400002010000020EF
:100F780018000020074A08B5136843F010031360EF
:100F8800032000F013FD0020FFF7D0FFFFF796FEC7
:100F9800002008BD00200240034A044B11681B785A
:100FA8000B441360704700BF50020020140000205B
:100FB800014B1868704700BF50020020026838B51E
:100FC800936803F00303012B01D0002038BD136898
:100FD800DC07FAD5936803F00D03012B044609D00A
:100FE800236C43F010032364636C43F001036364D0
:100FF800012038BD9368032143F002039360116018
:10100800FFF7D6FF23689B68D9070546DDD5FFF7AC
:10101800CFFF401B0228236802D99A68D207DFD481
:101028009B68DB07F3D4D0E703689A6812F00C0FCB
:1010380001D100207047DA6870B59501044604D5DF
:10104800008B40F20112904234D060299A6844D053
:10105800500706D59A68920703D49A6842F010029E
:101068009A600C2935D09A68100706D59A689207B5
:1010780003D49A6842F020029A606C2929D10C2581
:10108800FFF796FF236806469B681D4223D0FFF7AB
:101098008FFF831B0B2B2368F6D99A682A42F3D05B
:1010A800236C43F010032364636C43F0010363640F
:1010B800012070BD1A68500606D4124A01E0013AB0
:1010C800EED019684906FAD540221A609A68560780
:1010D8000FD40425D4E7002070BD160701D40825D5
:1010E800CEE79A689507FAD49A6842F020029A6087
:1010F800F5E79A689507ECD49A6842F010029A606E
:10110800E7E700BF00940900026838B5936803F068
:101118000303012B044626D09168154B194209D0C8
:10112800236C43F010032364636C43F0010363648E
:10113800012038BD936843F001039360FFF738FF3F
:10114800236805461B68D9070BD4FFF731FF431BFB
:10115800022B2368F6D91A68D207E1D51B68D9078C
:10116800F3D5002038BD1368D807D5D50020F9E796
:101178003F00008030B583B000230193C8B1036CF1
:1011880013F01003044617D1056C002D00F08B8076
:1011980002689168C80074D59168890071D4216C7F
:1011A800CD0600D463B1236C23F0120343F010037F
:1011B8002364012003B030BD036CDA06F3D402685F
:1011C80093685807EFD4236C694923F4817343F07B
:1011D800020323649068B2F1A04F00F0030014BF2B
:1011E8004FF0A0430B46012800F0AC80996801F04D
:1011F8000301012900F0AB805E4960688B6823F425
:10120800403303438B60D4E902130B43616B607E68
:10121800013918BF012143EA403343EA013394F806
:101228002010012900F08680A16A012902D0E06A15
:1012380001430B43916811F00C0F0CD1D16821F4D4
:10124800804121F00201D16094F83010207E4900DD
:1012580041EA80310B43D06847490140206919436E
:101268000128D1605ED0136B23F00F0313630020B5
:101278006064236C23F0030343F00103236403B089
:1012880030BD236C23F0120343F010032364636C16
:1012980043F001036364236C236C23F0120343F0CF
:1012A8001003236485E7C0E91255456480F83C5073
:1012B800FFF71EFD22689368DB0001D52B4668E71F
:1012C8002046FFF77BFE226C12F0100F03462268BF
:1012D8007FF45FAF00287FF45CAF216C274D21F4C9
:1012E800885121F0020141F00201216490682968C7
:1012F80020F040509060906840F080509060204806
:10130800A0FB0101890C01EB8101490001910199C0
:1013180000293FF43EAF0199013901910199002953
:10132800F9D136E7116BE36921F00F01013B0B435B
:1013380013639CE780B9616A013943EA414141F48A
:10134800803371E71168C9073FF55DAF4EE71B6849
:10135800DB073FF558AF4FE7216C21F0220141F040
:1013680020012164616C41F0010161645CE700BF08
:10137800000100500003005007C0F0FF10000020DB
:1013880083DE1B4338B503689D6815F004054AD110
:1013980090F83C30012B044645D0012380F83C30BE
:1013A800FFF7B2FE00283BD1236C2A4A23F470636E
:1013B80023F0010343F4807323649268236812F0D6
:1013C8001F0F226C31D122F480122264DA68920154
:1013D80005D5226C22F4405242F480522264226CD9
:1013E80012F4805218BF626C4FF0000118BF22F04F
:1013F8000602626484F83C10164A1C211960916840
:10140800C90621D0916801F01F0105291CD09268F6
:1014180002F01F02092A17D0B3F1A04F14D038BD2B
:1014280084F83C5038BD022038BDB3F1A04FCAD073
:10143800094942F480128B422264D0D14FF0A04275
:10144800D2689501CBD5C4E79A6842F004029A6045
:1014580038BD00BF000300500001005090F83C3038
:10146800012B1DD0012310B56C2180F83C300446B7
:10147800FFF7DAFD18B1002384F83C3010BD204690
:10148800FFF79CFD0028F6D1236C23F4885323F042
:10149800010343F001032364002384F83C3010BDAA
:1014A800022070472DE9F0414469082C05460E4694
:1014B80036D03A4B9A68D0062CD09B6813F4404F2C
:1014C80030D12B680C24354A9268D20604D0B3F187
:1014D800A04F18BF4FF0A043DF68FFF769FD731CEA
:1014E8002A68804638D113681C42FCD02B6C43F420
:1014F80000732B64D36807F4005103F440630B4373
:1015080002D11368180717D47B0400D41460002094
:10151800BDE8F0812B68DA68D10703D40C24D2E740
:101528000368D0E72B6C43F020032B64002385F875
:101538003C300120BDE8F081936813F0040F2B6C58
:1015480019D123F480732B642B6CD904DCD42B6C55
:1015580043F001032B64D7E713682342C6D196B939
:1015680013682340F8D12A6C85F83C3042F0040215
:101578002A640320CCE743F020032B646B6C43F010
:1015880001036B64C0E7FFF713FDA0EB0803B34248
:101598002A68E5D813681C42F5D0A7E70003005075
:1015A8000368186C704700BF70B590F83C2082B093
:1015B8000346012A4FF00000019000F0CC80012082
:1015C8001A6883F83C009068450741D44C6808685D
:1015D80004EB440C042C4FEA4C0C00F28380146B8F
:1015E8004FF01F0E0EFA0CFE24EA0E0400FA0CFC53
:1015F80044EA0C041463946814F00C0F3BD10928D6
:101608008C6800EB400C7FD855694FF0070E04FA40
:101618000CF40EFA0CFC25EA0C0C4CEA0404546198
:101628000D69D46805F1FF3CC4F3C1044D69640039
:10163800A5404FEA806EBCF1030F00F21181DFE88C
:101648001CF01100D800CE00C4001468E40736D599
:101658001A6C42F020021A640120002283F83C2010
:1016680002B070BD166E934C344044EA0E042C430D
:1016780044F000441466946804F00304012C66D016
:10168800CD680124012D04FA00F467D0D2F8B01017
:1016980021EA0401C2F8B010102876D011284FD1E1
:1016A80085498968CE011BD494688449B2F1A04F5A
:1016B80004F0030418BF4FF0A041012CC5D08C687A
:1016C80004F00304012C00F0C680102800F0A58067
:1016D800112800F0988078498A6842F480028A606C
:1016E8000020BAE7092C1DD90E2C60D8946BACF1F8
:1016F8003C0C1F2505FA0CF524EA050400FA0CFC3D
:1017080044EA0C04946376E79569ACF11E0C4FF03B
:10171800070E04FA0CF40EFA0CFC25EA0C052C430F
:1017280094617DE7546BACF11E0C1F2505FA0CF58E
:1017380024EA050400FA0CFC44EA0C0454635AE752
:101748001228CDD15C4989684D02C9D4ACE7146828
:10175800E40795D5C4E7022002B070BD8D68D2F8C1
:10176800B010092841EA0401C2F8B01012D900EB00
:10177800400491691B3C4FF0070CA5400CFA04F497
:1017880021EA04012943916186E74B4989680902E6
:101798008AD5A5E70130516900EB40000724854050
:1017A80004FA00F021EA00012943516198E7D46B5B
:1017B800ACF15A0C1F2505FA0CF524EA050400FAC9
:1017C8000CFC44EA0C04D46315E7D66E394C34405B
:1017D80044EA0E042C4344F00044D4664BE7966E6A
:1017E800344C344044EA0E042C4344F000449466DC
:1017F80041E7566E2F4C344044EA0E042C4344F023
:101808000044546637E7B2F1A04F7FF469AF2A4924
:101818008A6842F080728A6062E7B2F1A04F7FF472
:101828005FAF2548264C8268264942F40002826050
:101838002268A1FB0212920C02EB82025200019272
:10184800019A002A3FF44CAF019A013A0192019A99
:10185800002AF9D144E70968C9073FF5F9AE34E72A
:10186800146E04F0F844744514D0546E04F0F8442F
:10187800744514D0946E04F0F844744514D0D46EB2
:1018880004F0F84474457FF4F6AED46E24F00044B6
:10189800D466F0E6146E24F000441466E5E7546E4E
:1018A80024F000445466E5E7946E24F000449466FE
:1018B800E5E700BF00F0FF8300030050000100507F
:1018C8001000002083DE1B43F0B4034635481C6833
:1018D80093F83C20B4F1A04F18BF4FF0A040012A64
:1018E80035D0012283F83C20A268560709D51A6C26
:1018F80042F0200201201A64002283F83C20F0BC48
:10190800704782685507F2D40D681DB3264E4F689C
:10191800B26893F830C022F460423A4342EA4C324B
:10192800B260A26802F00302012A36D0826802F08F
:101938000302012A29D01C488968826822F471624E
:101948000D4322F00F02154385600020D4E70220E2
:10195800F0BC704714498A6822F460428A60A26821
:1019680002F00302012A14D0826802F00302012A5D
:1019780007D00D498A6822F4716222F00F028A604A
:10198800E3E70268D207E0D4F3E70268D007DCD4C3
:10199800D1E72268D107D8D4E6E72268D407D4D49F
:1019A800C4E700BF00010050000300500749CA689F
:1019B80003024FF6FF0003F4E0630240134343F0D1
:1019C800BF6343F40033CB60704700BF00ED00E015
:1019D8001B4BDB68C3F3022300B5C3F1070EBEF14E
:1019E800040F03F1040C28BF4FF0040EBCF1060FDE
:1019F8001CD9A3F1030C4FF0FF3303FA0CF322EACE
:101A080003024FF0FF3303FA0EF321EA030303FA4C
:101A18000CF313431B010028DBB20ADB00F1604022
:101A280000F5614080F800335DF804FB002294461D
:101A3800E7E7044A00F00F00024413765DF804FB60
:101A480000ED00E0FCEC00E0002807DB4109044A57
:101A580000F01F000123834042F82130704700BF87
:101A680000E100E00138B0F1807F01D30120704728
:101A780010B44FF0E023074C58614FF0F00C84F895
:101A880023C00022072110469A615DF8044B1961B2
:101A9800704700BF00ED00E088B110B50379044637
:101AA80003F0FF023BB100230221012221712361CF
:101AB8002271184610BD4271FFF752F9F3E7012071
:101AC800704700BF10B483B00068002401940190EF
:101AD80051B9019908310A440192019A0020136012
:101AE80003B05DF8044B7047019914310A44019220
:101AF800F3E700BF4279012A24D003460222006896
:101B080010B41A71046801228A40224302600268F4
:101B180071B902F03C023C2A03D1426842F001024A
:101B28004260002001221A7158715DF8044B704719
:101B380002F47012B2F5701FF3D1426842F002024B
:101B48004260EEE70220704703464079012829D019
:101B580070B41C68144E02201871B44225680868D5
:101B680017D08968014340F6FE70904025EA0000CE
:101B78009140014321602168C02000FA02F200254B
:101B880021EA02020121226019715D71284670BCA8
:101B98007047002AE5D14968014325F47F6020F0A9
:101BA8000E00E5E702207047007400400B68002B28
:101BB80000F087812DE9F04FB0F1904F85B04FF0DC
:101BC80000024FF0010B00F00281DFF81CE30093E4
:101BD800009B0BFA02FC1CEA030A6DD04D6805F065
:101BE80003075400032307F1FF3803FA04F6B8F19A
:101BF800010F6FEA060640F20E81032F40F0628162
:101C080007FA04F407683E40344315F4403F046083
:101C180052D0B24EB46944F00104B461B46904F01E
:101C280001040394039C22F0030404F1804402F0AD
:101C380003070F2304F58034BF0003FA07FCA84B01
:101C4800A668984226EA0C0600F03581A54B984212
:101C580000F02281DFF894C260450CBF4FF0030CFE
:101C68004FF0050C0CFA07F73E43A660DEF8084073
:101C78006FEA0A06EF0254BF34404AEA0404CEF879
:101C88000840DEF80C40AB0254BF34404AEA040472
:101C9800CEF80C40DEF80440AF0354BF34404AEAA3
:101CA8000404CEF80440DEF80040EB0354BF34408F
:101CB8004AEA0404CEF80040009B013233FA02F4E9
:101CC80086D105B0BDE8F08FD0F80890CE680AEA52
:101CD800090906FA07F848EA0908C0F80880D0F8A0
:101CE800048028EA0E08C5F3001E0EFA02FE4EEA2A
:101CF800080EC0F804E0D0F80C808E680AEA0808DC
:101D080006FA07FE4EEA080E022CC0F80CE019D1BC
:101D18004FEAD20E0E694FEA8E0E02F007080EF156
:101D2800904E4FEA880806FA08F6DEF820900096EA
:101D38000F2606FA08F8009E29EA080946EA090863
:101D4800CEF82080BC40076807EA0A073C4315F430
:101D5800403F046036D0614FBC6944F00104BC6167
:101D6800BC6904F001040394039C22F0030404F109
:101D7800804404F5803402F00307D4F808E00F2605
:101D8800BF0006FA07F72EEA0707A760564CEE02CF
:101D9800A4686FEA0C077CD43C40534EB460F468E6
:101DA800AE0200F185803C404F4EF4607468AE038B
:101DB8007BD43C404C4EED037460346872D43C4094
:101DC800494D2C60013233FA02F43FF47AAF0BFA32
:101DD80002FE13EA0E0CF5D04D685700032606FAEA
:101DE80007F805F003046FEA080A04F1FF38B8F1B0
:101DF800010F7FF669AF032CA4D04FF090488E688E
:101E0800D8F80C9006FA07FE0AEA09094EEA090E04
:101E1800C8F80CE096E7D0F80890CB6809EA0609FC
:101E280003FA04F848EA0908C0F80880D0F80480E2
:101E38008B6828EA0C08C5F3001C0CFA02FC4CEA73
:101E4800080CC0F804C0D0F80C8003FA04FC08EAB7
:101E580006084CEA080C022FC0F80CC07FF4D0AE7C
:101E68000B694FEAD20802F0070C00EB88084FEA2A
:101E78008C0C03FA0CF3D8F8209001930F2303FA83
:101E88000CFC019B29EA0C0943EA090CC8F820C09C
:101E9800B6E644EA0C0480E74FF0020C0CFA07F7A8
:101EA8003E43E2E64CEA04048AE74CEA040481E78C
:101EB80044EA0C0478E74FF0010C0CFA07F73E43AC
:101EC800D3E67047D0F80C808B6808EA060803FA56
:101ED80004FC4CEA080CC0F80CC091E60010024063
:101EE800000400480008004800040140000C0048B5
:101EF8000AB1816170478162704700BF436901EA96
:101F0800030221EA030141EA02418161704700BFEF
:101F1800704700BF044A5169014200D1704708B5B3
:101F28005061FFF7F5FF08BD00040140002800F0EC
:101F3800BB822DE9F0430368D90783B004464BD52B
:101F4800AC494A6802F00C02042A00F05D814A6834
:101F580002F00C02082A00F05381D4E90132B3F5EB
:101F6800803F15D0002B00F08981B3F5A02F00F039
:101F78003682A04B196821F480311960196821F460
:101F880080211960D96A21F00F010A43DA6209E059
:101F980098490B6843F480330B60CB6A23F00F0336
:101FA8001343CB62FFF704F8924F05464FF400380D
:101FB800012605E0FEF7FCFF401B642800F25A8169
:101FC80098FAA8F33A6898FAA8F3B3FA83F306FAEA
:101FD80003F31342EED023689F073FD5854A516823
:101FE80011F00C0F00F0CB80516801F00C010829AA
:101FF80000F0C1802269002A00F09481012595FA39
:10200800A5F3B3FA83F303F1845303F584139B0018
:10201800784F1D60FEF7CCFF4FF00208064605E03A
:10202800FEF7C6FF801B022800F2248198FAA8F365
:102038003A6898FAA8F3B3FA83F305FA03F313425C
:10204800EED03968F82292FAA2F26369B2FA82F203
:10205800934021F0F80213433B6023681D0729D4FD
:10206800580753D5634BDA69D10000F1C180DA69AA
:1020780042F08052DA61DB6903F080530193019BDF
:1020880001255D4E3368DA0540F1E480E368012BF1
:1020980000F06C81002B00F01781052B554B1A6A54
:1020A80000F0A98122F001021A621A6A22F00402E1
:1020B8001A6260E1A269002A74D0012696FAA6F293
:1020C8004E4BDFF83081B2FA82F213449B000225AE
:1020D8001E60FEF76DFF074605E0FEF769FFC01BAF
:1020E800022800F2C78095FAA5F395FAA5F395FAA8
:1020F800A5F3D8F8242095FAA5F3B3FA83F306FAE2
:1021080003F31342E9D023685807ABD4E36973B3E8
:10211800384D6A6802F00C02082A00F04F81022B41
:102128004FF0807300F06F8193FAA3F3B3FA83F34F
:1021380003F1845303F584139B0000221A60FEF711
:1021480037FF4FF000770446012605E0FEF730FF21
:10215800001B022800F28E8097FAA7F32A6897FAE4
:10216800A7F3B3FA83F306FA03F31342EED1002080
:1021780003B0BDE8F0835268D6033FF53BAF0222B7
:1021880092FAA2F11B49086892FAA2F20121B2FA66
:1021980082F201FA02F202424BD022698A4248D006
:1021A8000120E5E7012797FAA7F1144BDFF84480EF
:1021B800B1FA81F10B449B0002251A60FEF7F8FE84
:1021C800064604E0FEF7F4FE801B022852D895FA72
:1021D800A5F395FAA5F395FAA5F3D8F8242095FA6E
:1021E800A5F3B3FA83F307FA03F31342EAD18AE7B4
:1021F800002546E700100240007000402081901042
:102208004A68D2037FF5A9AE4FF4003292FAA2F1E0
:10221800A649086892FAA2F20121B2FA82F201FAFA
:1022280002F202423FF4D8AE6268002A7FF4D4AECC
:10223800B6E79E4DF821286891FAA1F16269B1FAD2
:1022480081F120F0F8008A4002432A601D077FF5DB
:1022580007AF2FE7336843F480733360FEF7A8FEB7
:1022680007463368DB053FF511AFFEF7A1FEC01B3B
:102278006428F6D9032003B0BDE8F0838B4D2B68A2
:1022880023F480332B602B6823F480232B60EB6AC4
:1022980023F00F031343EB62FEF78AFE4FF4003876
:1022A8000646012704E0FEF783FE801B6428E1D878
:1022B80098FAA8F32A6898FAA8F3B3FA83F307FA06
:1022C80003F31342EFD186E6784E336A23F0010315
:1022D8003362336A23F004033362FEF769FE4FF07A
:1022E800020907464FF0010806E0FEF761FE41F2D9
:1022F8008833C01B9842BDD899FAA9F399FAA9F373
:10230800326A99FAA9F3B3FA83F308FA03F313428A
:10231800EBD1002D3FF4FAAE644AD36923F0805321
:10232800D361F3E6012696FAA6F3B3FA83F303F131
:10233800845303F584139B005C4F1A60FEF738FE44
:102348004FF00208054604E0FEF732FE401B022863
:1023580090D898FAA8F33A6898FAA8F3B3FA83F3EE
:1023680006FA03F31342EFD1236877E64F4A136A5C
:1023780043F001031362FEF71BFEDFF830810646C7
:102388004FF00209012707E0FEF712FE41F28833F9
:10239800801B98423FF66EAF99FAA9F399FAA9F310
:1023A800D8F8202099FAA9F3B3FA83F307FA03F3CC
:1023B8001342E9D0002D3FF4A9AEADE7012B3FF45D
:1023C800EFAE6B68226A03F4803191427FF4E8AE85
:1023D800606A03F47013181A18BF0120C8E603F1E5
:1023E8008043A3F53C33196841F4802119601968CA
:1023F80041F48031C5E542F004021A621A6A42F0DB
:1024080001021A62B7E793FAA3F3B3FA83F303F16D
:10241800845303F584139B0000221A60FEF7C8FD5D
:102428004FF000780646012705E0FEF7C1FD801B46
:1024380002283FF61FAF98FAA8F32A6898FAA8F37B
:10244800B3FA83F307FA03F31342EED1D4E908137E
:102458006A680B4322F4741213436B604FF0807365
:1024680093FAA3F3B3FA83F303F1845303F58413C4
:102478009B000E4E1F60FEF79BFD4FF00077044651
:10248800012505E0FEF794FD001B02283FF6F2AE99
:1024980097FAA7F3326897FAA7F3B3FA83F305FA22
:1024A80003F31342EED062E60120704700100240A9
:1024B800002800F0A3805D4A136803F007038B42ED
:1024C8002DE9F0410D4604460CD2136823F00703AA
:1024D8000B431360136803F007038B4202D00120FB
:1024E800BDE8F08123689F0706D55149A0684A686E
:1024F80022F0F00202434A60DE072CD56268012A06
:102508007ED0022A0CBF4FF00073022393FAA3F186
:102518004749086893FAA3F30121B3FA83F301FA50
:1025280003F30342DBD0424E736823F003031343E3
:102538007360FEF73DFD41F28838074604E0FEF778
:1025480037FDC01B40456AD87368626803F00C0306
:10255800B3EB820FF3D1354A136803F00703AB429C
:1025680009D9136823F007032B431360136803F09A
:102578000703AB42B3D12368580706D52C49E06856
:102588004A6822F4E06202434A60190707D5284ADC
:102598002169536823F4605343EAC1035360244B11
:1025A8005A6802F00C01082917D02249204BF02262
:1025B8005B6892FAA2F2B2FA82F203F0F0031E4CC0
:1025C8001E48D3401E4AE35C006821FA03F31360F7
:1025D800FEF7ACFC0020BDE8F081C2F38340194C43
:1025E800D96A235CD2031CD51748124A01F00F019F
:1025F800415CB2FBF1F203FB02F1D7E7012070471F
:102608004FF4003393FAA3F10949096893FAA3F345
:10261800B3FA83F302FA03F30B4284D15FE7032092
:102628005EE70A4903FB01F1C0E700BF0020024052
:102638000010024000127A00A83400081800002098
:1026480010000020C8340008B834000800093D0014
:102658000E4A536803F00C01082901D00C48704752
:10266800C3F383410B48D26A405CDB0309D50A49AE
:10267800074B02F00F028A5CB3FBF2F303FB00F096
:102688007047064B03FB00F0704700BF0010024084
:1026980000127A00C8340008B834000800093D0068
:1026A800084B4FF4E0625B6892FAA2F2B2FA82F247
:1026B80003F4E06304490548D3400068CB5CD84084
:1026C800704700BF00100240A0340008100000202E
:1026D800084B4FF460525B6892FAA2F2B2FA82F2A7
:1026E80003F4605304490548D3400068CB5CD840E4
:1026F800704700BF00100240A034000810000020FE
:102708002DE9F04303680446D80383B03DD5564B02
:10271800DA69D1006BD5554D2B68DA054FF0000604
:1027280074D5DFF844816168D8F8203013F4407319
:102738001FD001F440729A421BD0D8F820104FF4F1
:10274800803321F4407093FAA3F2494FB2FA82F22F
:102758003A4492000125156093FAA3F3B3FA83F380
:102768003B449B000022CF071A60C8F8200060D4C1
:1027780061683D4A136A23F440730B4313621EB128
:10278800D36923F08053D3612368DD0706D5364922
:10279800A0680A6B22F0030202430A63980606D572
:1027A8003149E0680A6B22F0100202430A631906F5
:1027B80006D52D492069CA6A22F4F8720243CA6212
:1027C800DA0406D5284960690A6B22F4807202434C
:1027D8000A635B0403D4002003B0BDE8F083224AF7
:1027E800A169136B23F480530B431363F3E7DA698E
:1027F8001E4D42F08052DA61DB6903F08053019389
:10280800019B2B68DA054FF001068AD42B6843F444
:1028180080732B60FEF7CCFB07462B68DB0580D462
:10282800FEF7C6FBC01B6428F7D9032003B0BDE838
:10283800F083FEF7BDFB4FF00209074699FAA9F3AA
:1028480099FAA9F3D8F8202099FAA9F3B3FA83F3EF
:1028580005FA03F313428BD1FEF7AAFB41F2883342
:10286800C01B9842EAD9E0E700100240007000401F
:1028780000819010002872D070B590F83D30044661
:1028880003F0FF02002B5AD02368404EA569E06888
:102898006168022284F83D20B3421A6818D0B3F167
:1028A800804F15D0A6F59436B3425AD0384EB3426D
:1028B8004AD006F58066B3425CD006F58066B3421E
:1028C80058D022F080022A431A60D862996212E036
:1028D800A66822F070023243266922F4407232431D
:1028E80022F080022A431A60284AD86293429962E9
:1028F80001D162691A6301225A611A69D20703D5A4
:102908001A6922F001021A61012384F8483084F818
:102918003E3084F83F3084F8403084F8413084F801
:10292800423084F8433084F8443084F8453084F8E1
:10293800463084F8473084F83D30002070BD80F878
:102948003C20FEF747FA9FE7266922F4407232439B
:1029580022F0800215431D60D8629962C9E7012000
:102968007047A66822F070023243266922F440724A
:102978003243A6E7266922F44072324322F08002ED
:102988002A431A60D8629962B3E700BF002C01405D
:102998000040014090F83D30012B1AD103681249DC
:1029A800022280F83D20DA688B4242F00102DA60A8
:1029B80011D0B3F1804F0ED00C4A93420BD002F5E0
:1029C8009E32934207D01A6842F001021A60002032
:1029D8007047012070479968054A0A40062AF6D0D0
:1029E800B2F5803FEFD1F2E7002C0140000400402F
:1029F8000700010090F83C20012A6CD0034630B44F
:102A080002680224012083F83D4083F83C00956861
:102A18004C4C2C4094600C68602C76D011D8402C1B
:102A28005BD02ED8202C04D000F2888034F010011E
:102A38001FD1916821F07001214341F00701916095
:102A480016E0B4F5805F13D0B4F5005F33D0702C76
:102A58000FD1D1E9015094682843CD6824F47F410F
:102A680040EA052008439060916841F07701916041
:102A780000200121002283F83D1083F83C2030BC5F
:102A88007047502CF5D14868CC68116A21F00A01CA
:102A98000843116A21F001011162916921F0F001E6
:102AA80041EA041191611062916821F0700141F0CE
:102AB80057019160DCE7D1E9015094682843CD685B
:102AC80024F47F4140EA052008439060916841F46E
:102AD80080419160CCE7022070474868CC68116A51
:102AE80021F00A010843116A21F00101116291697C
:102AF80021F0F00141EA041191611062916821F01E
:102B0800700141F047019160B2E74868CC68116AEA
:102B180021F0A00141EA0011106A20F010001062B3
:102B2800906920F4704040EA043090611162916825
:102B380021F0700141F06701916099E7302C3FF472
:102B480078AF96E78800FEFF704700BF704700BF68
:102B5800704700BF704700BF036870B5DE681D6925
:102B6800A907044601D5B20751D46A0701D57307EE
:102B78003AD4280701D5310724D4EB0601D5F0064D
:102B880010D4E90701D5F20763D42B064CD53006DB
:102B980067D4680601D571066DD4AA0601D5B306B7
:102BA8004ED470BD23686FF010021A610822227794
:102BB800DB6913F4407F204671D0FFF7C7FF00237D
:102BC8002377DEE723686FF008021A610422227770
:102BD800DB699A0720465FD1FFF7B6FF2046FFF76B
:102BE800B7FF00232377C8E723686FF004021A6150
:102BF800022222779B6913F4407F204649D1FFF7D0
:102C0800A3FF2046FFF7A4FF00232377B1E76FF067
:102C180002021A61012202779B69990733D0FFF7F4
:102C280095FF00232377A0E7EA05B2D53306B0D590
:102C380023686FF480721A61204600F075F8A8E7DF
:102C480023686FF0200220461A61BDE8704000F04A
:102C580067B823686FF001021A612046FDF7A0FFEC
:102C680093E723686FF080021A61204600F05AF853
:102C7800E9058ED5DCE723686FF040021A6120462B
:102C8800FFF768FF89E7FFF75FFF2046FFF760FF60
:102C9800C7E7FFF75BFFB7E7FFF758FFA1E7FFF7C5
:102CA80053FF2046FFF754FF89E700BF90F83C2008
:102CB800012A2FD0026870B40346174E022083F809
:102CC8003D00B24250680D6894681AD020F0700038
:102CD8002843B2F1804F506006D01048824203D09A
:102CE80000F59E30824204D1896824F080040C43A8
:102CF80094600020012283F83D2083F83C0070BCDA
:102D080070474E6820F47000304320F0700005438F
:102D18005560E9E702207047002C0140000400409C
:102D2800704700BF704700BF704700BF436A1A076B
:102D380010B406D50168446B4A6822F40042224365
:102D48004A60DC0706D50168846A4A6822F40032C2
:102D580022434A60990706D50168C46A4A6822F482
:102D6800803222434A605A0706D50168046B4A68D4
:102D780022F4802222434A60DC0606D50168846B6F
:102D88008A6822F4805222438A60990606D501682F
:102D9800C46B8A6822F4005222438A605A0609D515
:102DA8000168046C4A6822F480122243B4F5801F3B
:102DB8004A600BD01B0606D50268816C536823F461
:102DC80000230B4353605DF8044B70474A68446C1A
:102DD80022F4C00222434A60ECE700BF38B5002362
:102DE8000446C0F88430FEF7E3F8226813681B072E
:102DF80005460ED4136859072FD400232022E26712
:102E08001846C4F8802023666366002384F8783067
:102E180038BDD3699802EDD40CE0196849071A4601
:102E280005D5D969080749D4D969090574D4DB6976
:102E38009802DFD4FEF7BCF8431BB3F1007F236888
:102E4800EBD353E8002F22F0800243E80021002949
:102E5800F7D12023E3670320D7E7D3695B02CCD4FB
:102E68000DE01A68500707D5DA69110700F182806A
:102E7800DA69120500F1AC80DB695B02BDD4FEF7AC
:102E880097F8431BB3F1007F2368EAD353E8002F78
:102E980022F4907243E800210029F7D103F10802D7
:102EA80052E8002F22F0010203F1080040E8002157
:102EB8000029F3D12023C4F88030CCE708221A6215
:102EC80053E8002F22F4907243E800210029F7D13B
:102ED80003F1080252E8002F22F0010203F1080072
:102EE80040E800210029F3D1226E012A0BD00022EC
:102EF80020200821C4F88000A266226684F8782081
:102F0800C4F884109DE753E8002F22F0100243E82C
:102F180000210029F7D1EAE74FF400621A6253E86A
:102F2800002F22F4907243E800210029F7D103F121
:102F3800080252E8002F22F0010203F1080040E8DD
:102F480000210029F3D1226E012A0AD00022202173
:102F5800C4F88010A266226684F87820C4F8841029
:102F68006FE753E8002F22F0100243E80021002900
:102F7800F7D1EBE708221A6253E8002F22F4907287
:102F880043E800210029F7D103F1080252E8002F95
:102F980022F0010203F1080040E800210029F3D1E2
:102FA800226E012A0BD0002220200821C4F88000BC
:102FB800A266226684F87820C4F8841066E753E88D
:102FC800002F22F0100243E800210029F7D1EAE798
:102FD8004FF400621A6253E8002F22F4907243E81B
:102FE80000210029F7D103F1080252E8002F22F04E
:102FF800010203F1080040E800210029F3D1226E04
:10300800012A0AD000222021C4F88010A266226674
:1030180084F87820C4F8841038E753E8002F22F0A9
:10302800100243E800210029F7D1EBE7002800F05F
:103038009B8038B5C36F0446002B69D02568626A47
:103048002423E3672B6823F001032B60002A5BD15C
:10305800D4E90412A36828680B431343E169644A5E
:103068000B43024013432B606B68E268206A23F429
:10307800405313436B60AA68A36922F43062034388
:1030880013435C4AAB6095420AD05B4B9D420ED01D
:103098005A4B9D420BD00023C4E91A33012038BD96
:1030A800574B1B6B03F00303013B022B35D9B1F5DA
:1030B800004F5DD0FFF7F4FAA8B9C4E91A002368F5
:1030C8005A6822F490425A609A6822F02A029A605A
:1030D8001A6842F0010220461A60BDE83840FFF73E
:1030E8007DBE4FF4004063684FF6EF7200EB53006B
:1030F800B0FBF3F0A0F110039342CCD82368002270
:10310800D860C4E91A22DBE72046FFF70FFE9FE7E5
:1031180080F87830FDF780FE90E73A4AB1F5004F25
:10312800D35C41D0082BB6D801A252F823F000BFD7
:10313800BD30000867310008753100089F3000086D
:103148005D3100089F3000089F3000089F3000085C
:10315800EB300008FFF77CFA0028C4D1ADE7FFF791
:10316800B7FA0028BFD1A8E7012070472648BAE778
:10317800FFF796FA0028A0D0420063684FF6EF7177
:1031880002EB5302B2FBF3F2A2F110038B4282D896
:1031980022F00F0189B22368C2F342020A430021D8
:1031A800DA60C4E91A118BE7082B3FF674AF01A265
:1031B80052F823F079310008E7310008ED310008B2
:1031C8009F300008E13100089F3000089F30000858
:1031D8009F300008F1310008FFF73AFACAE7FFF715
:1031E80077FAC7E7094AC8E74FF48032C5E700BF56
:1031F800F369FFEF003801400044004000480040F8
:1032080000100240D834000800127A000024F400AC
:103218002F4A3049DFED307A9FED307ADFF8D4C09D
:1032280010B54261026542652D4A82662D4A0267E1
:1032380042672D4A82622D4ADFF8BCE00161002313
:1032480081650166C2622A49C0ED2C7A4FF07E5230
:1032580000240460C0F8AC30C0F8A030C0F8943046
:10326800C0F89030C0F8A830C0F89C30C0F820C032
:10327800C366C0F88C30C0F89820C0F8A4208261DA
:10328800C2614262C26542668267C267C0F80CE0EA
:10329800C0F88020C0ED227AC0F848E080ED327A8C
:1032A800C0F884200163416301644164C0F838C0F8
:1032B800C0F83CC0C3644260C0F8B430C0F8BC3049
:1032C800C0F8C430C0F8B820C0F8C030836010BD62
:1032D800022B073D2DB21D3E6F12833A000000807D
:1032E8005555954000007A44CDCC4C3ECDCC4CBED3
:1032F800EB515641E17AB43F0000184190ED2C7A29
:10330800D0ED2D6AD0ED2E7A90ED015AD0ED0F4A0E
:10331800D0ED305A90ED326AD0ED2F3AE7EE267AAA
:1033280000230360E7EE235A75EE676AC0ED2E7A34
:1033380086EEA44AD0ED314AD0ED127A80ED2D4ABE
:10334800A7EE246A90ED087ADFED364AC0ED305AD0
:10335800B0EEC77AB4EEE47AF1EE10FA58BF26EE72
:10336800A75AD0ED156A90ED047AD0ED1A4A80ED8F
:10337800326A75EE657A87EEA64AD0ED057ADFEDFA
:10338800296A80ED2F4A37EE677AD0ED197AB0EEC8
:10339800C77AB4EEE67AF1EE10FA3ED477EEE46A34
:1033A80066EEA56AE5EE246A36EEC67AD0ED1D5AB9
:1033B800D0ED067A9FED1B5AC7EE254A90ED077AA5
:1033C800D0ED225AC0ED314A77EEC77A90ED217AD6
:1033D800F0EEE77AF4EEC57AF1EE10FA18D477EE4B
:1033E800657A67EE867AE6EEA57A90ED0A7AB4EE0B
:1033F800E77AF1EE10FA08D490ED0B7AB4EEE77A9A
:10340800F1EE10FAB8BFB0EE677A80ED027A704735
:10341800D0ED297A66EEA77AE7E7D0ED266A65EE61
:10342800266AC1E77D1D902602440346934200D1D7
:10343800704703F8011BF9E770B50D4D0D4C641B7F
:10344800A4100026A64209D10B4D0C4C00F018F828
:10345800641BA4100026A64205D170BD55F8043B94
:1034680098470136EEE755F8043B98470136F2E7EE
:10347800DC340008DC340008DC340008E0340008E0
:10348800F8B500BFF8BC08BC9E467047F8B500BF49
:08349800F8BC08BC9E46704719
:1034A0000000000001020304000000000000000012
:1034B00001020304060708090102030405060708C0
:1034C000090A0B0C0D0E0F1002030405060708096C
:0C34D0000A0B0C0D0E0F10100408020077
:0434DC00AD01000836
:0434E0008901000856
:1034E400000000000000F03F000000000000F03F7A
:0C34F40000127A0001000000100000002F
:0400000508000EE100
:00000001FF
